:100000000C94B2010C94D1010C94D1010C94D10147
:100010000C94D1010C94D1010C94D1010C94D10118
:100020000C94D1010C94D1010C94D1010C94D10108
:100030000C94D1010C9485370C94D1010C94D1010E
:100040000C94D1010C94D1010C94D1010C94D101E8
:100050000C94F9240C94251C0C94D1010C94D1011E
:100060000C94D1010C949A1C0C94D1010C94D101E4
:100070000C94D1010C94D1010C94D1010C94D101B8
:100080000C9422360C94D1010C94D1010C94D10122
:100090000C94C91C0C94D1010C94D1010C94D10185
:1000A0000C94D1010C94D1010C94D1010C94D10188
:1000B0000C94D1010C94D1010C94D1010C94D10178
:1000C0000C94D1010C94D1010C94D1010C94D10168
:1000D0000C94D1010C94D1010C94D1010C94D10158
:1000E0000C94D1010C94B2240C94BC240C94A8243C
:1000F0000C9462240C94ED240C94DE240C94D224F1
:100100000C94C6240C94D1010C94D1010C94D1010F
:100110000C94D1010C94D1010C94D1010C94D10117
:10012000257325730A004E657665722D75736564B7
:1001300020737461636B203E2025642062797465AE
:10014000730A004F6E6C696E650A00257320257373
:100150002C206368616E6E656C202575202C2063F1
:100160006865636B207261746520257520487A206C
:10017000747820706F7765722025750A000A002553
:10018000783A004D414320616464726573732000C6
:1001900052616E646F6D2045554936342061646448
:1001A000726573732067656E6572617465640A00B9
:1001B0000A2A2A2A2A2A2A2A426F6F74696E67201D
:1001C00025732A2A2A2A2A2A2A0A00020000FFFE68
:1001D00000000141544D454741313238726661316A
:1001E000006C6F63616C686F737400454550524FCB
:1001F0004D20697320636F72727570742C20726564
:1002000077726974696E67207769746820646566BF
:1002100061756C74732E0A00452025642E256420B8
:10022000636C6F636B20256C752063707520256C83
:1002300075206C706D20256C752069727120256C9D
:100240007520676C656420256C7520796C65642069
:10025000256C7520726C656420256C75207478207F
:10026000256C75206C697374656E20256C75207320
:10027000656E736F727320256C752073657269618A
:100280006C20256C750A00532025642E256420639C
:100290006C6F636B20256C7520747820256C75203D
:1002A000727820256C752072747820256C75207208
:1002B000727820256C75207265786D697420256CC4
:1002C000752061636B747820256C75206E6F616397
:1002D0006B747820256C752061636B727820256CB7
:1002E000752074696D65646F757420256C75206266
:1002F000616461636B727820256C7520746F6F6C1C
:100300006F6E6720256C7520746F6F73686F7274E1
:1003100020256C752062616473796E636820256C9A
:10032000752062616463726320256C7520636F6E53
:1003300074656E74696F6E64726F7020256C7520C1
:1003400073656E64696E6764726F7020256C7520CA
:100350006C6C747820256C75206C6C727820256C20
:10036000750A000011241FBECFEFD1E4DEBFCDBF60
:100370001FE0A0E0B2E0E6E6FFE900E00BBF02C04C
:1003800007900D92A638B107D9F716E3A6E8BFE0AB
:1003900001C01D92AA3CB107E1F70E94081A0C9413
:1003A000B14F0C9400007F928F929F92AF92BF92B8
:1003B000CF92DF92EF92FF920F931F93CF93DF9331
:1003C0006C01DC018D919C911197009729F084328A
:1003D000910509F05EC10DC088E491E160E071E033
:1003E0000E94F11684E290E0F6019183808381E01F
:1003F00054C18091521190915311A0915411B09118
:1004000055110196A11DB11D809352119093531166
:10041000A0935411B093551130917402E09075027D
:10042000009176028090770290907802A0907902F5
:10043000B0907A02F0907B0220917C0240917D0284
:10044000F0917E0270907F02709180025091810243
:100450006091820210918302230FE1E0231708F0DC
:10046000E0E04E0D31E04E1508F030E0EE2EE40EE7
:10047000E1E0E41608F0E0E03E2BF00F41E0F01779
:1004800008F040E0032F0F0F31E00F1708F030E0C5
:10049000432BE82DE70D31E0E81508F030E0F42FAC
:1004A000FE0F41E0FE1708F040E0342B790D41E0EB
:1004B000791508F040E0E32FE70F31E0E71708F087
:1004C00030E0432B5A0D31E05A1508F030E0450F6B
:1004D00071E0451708F070E0372B6B0D51E06B159C
:1004E00008F050E0732F760F31E0761708F030E017
:1004F000532B1F0D510F20938402E092850200932D
:100500008602F0938702E0938802409389027093F9
:100510008A0250938B02C6E8DFE02DB73EB7285021
:1005200030400FB6F8943EBF0FBE2DBF4DB75EB73B
:100530004F5F5F4FEDB7FEB7D283C18320E032E05B
:10054000FA013383228384839583A683B7830E9431
:10055000514C7C01909351118093501100D000D0E8
:10056000EDB7FEB731968C0F9D1FADB7BEB7129693
:100570009C938E9311978AE192E09383828304E7A0
:1005800012E080917402848380917502858380914A
:1005900076028683809177028783809178028087B4
:1005A00080917902818780917A02828780917B0293
:1005B00083870E94514CE80EF91EF0925111E0928F
:1005C0005011EDB7FEB738960FB6F894FEBF0FBEC8
:1005D000EDBF8DE492E092838183D483C3830E9434
:1005E000E14BF801389680917C02809374028091EF
:1005F0007D02D80111968C93119780917E021296FC
:100600008C93129780917F0213968C93139780910D
:10061000800214968C9314978091810215968C9386
:1006200015978091820216968C931697809183027B
:1006300017968C9317978091840218968C938091CB
:1006400085028183809186028283809187028383E1
:1006500080918802848380918902858380918A02B7
:10066000868380918B0287830F900F900F900F905D
:1006700080915011909151110E94361287E59DE0B2
:1006800069E8AE010E94BA1588E491E160E075E086
:10069000A7CEF6011182108283E0DF91CF911F91E6
:1006A0000F91FF90EF90DF90CF90BF90AF909F9011
:1006B0008F907F900895FC012FEF3FEF12C0832FA2
:1006C0009927A191B0E0A227B327B070AA0FBB1F52
:1006D000A457BD4F2D913C91119728273927615080
:1006E00070406115710559F720953095C90108953D
:1006F000282F392FD901E3E9F4E08D91819384E02B
:10070000EA39F807D1F70895009749F0E3E9F4E0F2
:10071000DC0181918D9384E0EA39F807D1F783E910
:1007200094E00895009749F0ECE8F4E0DC01819151
:100730008D9384E0E339F807D1F78CE894E00895CD
:10074000EF92FF920F931F93CF93DF93790121E2F2
:10075000E21622E0F20690F50115110579F1D801B3
:10076000262F372FF90127E001900D922150E1F754
:10077000D8011796FC0187E001900D928150E1F7B6
:1007800083E0F801868780EF87879801205F3F4FDD
:10079000C901BA01A7010E944E4BE7016096C8014A
:1007A000BE010E945B03C00FD11F9883898382E141
:1007B00090E0E80EF91E00E010E003C0EE24FF24F4
:1007C0008701B701C801DF91CF911F910F91FF9071
:1007D000EF9008950F931F93CF93DF93EB018A015E
:1007E000BA0147E050E00E94414B882339F08CE881
:1007F00094E0B80147E050E00E94414B209741F05F
:10080000202F312FF90197E0019009929150E1F7E3
:10081000DF91CF911F910F910895AF92BF92CF9228
:10082000DF92EF92FF920F931F93CF93DF936A01B2
:10083000E90198016115710539F0DB01FE0147E01E
:1008400001900D924150E1F7009741F0DC01FE016B
:10085000379687E001900D928150E1F789010251AE
:1008600010407E01E00EF11EF7018089B82EAA2407
:10087000B90162507040CE010E945B03F7012189EB
:1008800030E02A293B292817390771F4C114D10413
:1008900069F06096C601BE01A8010E944E4BF601A8
:1008A000E00FF11F108202C000E010E0C801DF91EC
:1008B000CF911F910F91FF90EF90DF90CF90BF905D
:1008C000AF900895AF92BF92DF92EF92FF920F9395
:1008D0001F93CF93DF935B01E82FF92F20E030E0E7
:1008E000A90160E070E04FC079018A01A4E016958B
:1008F0000795F794E794AA95D1F7D1908D2D90E0C4
:10090000A0E0B0E082279327A427B5278F709070CE
:10091000A070B070880F991F880F991F86569B4F43
:10092000EC0188819981AA81BB818E259F25A02712
:10093000B1277C018D0134E016950795F794E79473
:100940003A95D1F7D2942FE0D2222D2D30E040E01D
:1009500050E0282739274A275B272F7030704070D6
:100960005070220F331F220F331F26563B4FD901E1
:100970002D913D914D915C9113972E253F25402758
:1009800051276F5F7F4F6A157B0508F4ADCFC90112
:10099000DF91CF911F910F91FF90EF90DF90BF906B
:1009A000AF900895282F392FD901E0EEF4E08D9112
:1009B000819384E0E63EF807D1F70895009749F067
:1009C000E0EEF4E0DC0181918D9384E0E63EF807EF
:1009D000D1F780EE94E00895009749F0EAEDF4E055
:1009E000DC0181918D9384E0E03EF807D1F78AED38
:1009F00094E00895EF92FF920F931F93CF93DF93AC
:100A00007901E80121E2E21622E0F20688F520975A
:100A100079F1D801262F372FF90126E001900D92A8
:100A20002150E1F7DE011696FC0186E001900D925F
:100A30008150E1F787010E5E1F4F1C870D879E01D5
:100A4000225F3F4FC901BA01A7010E944E4B8EE0C1
:100A500090E0E80EF91ECE01B7010E946204CE0DAF
:100A6000DF1D188219829A838B8320E030E003C057
:100A700000E010E09801B801C901DF91CF911F910A
:100A80000F91FF90EF9008950F931F93CF93DF93F3
:100A9000EB018A01BA0146E050E00E94414B8823F5
:100AA00039F08AED94E0B80146E050E00E94414BF5
:100AB000209741F0202F312FF90196E00190099203
:100AC0009150E1F7DF91CF911F910F9108956F92AF
:100AD0007F928F929F92AF92BF92CF92DF92EF92CE
:100AE000FF920F931F93CF93DF933A01E9016801BF
:100AF0006115710551F0A90126E0DA010D90AD01F3
:100B0000DB010D92BD012150C1F7009761F0AE01EC
:100B10004A5F5F4F26E0DA010D90AD01DC010D92D6
:100B2000CD012150C1F78C85F82FE0E08D8590E054
:100B3000E82BF92BCE16DF0609F04CC086010251D6
:100B400010407E01E00EF11EF701868590E0A0E0E6
:100B5000B0E0BA2FA92F982F8827278530E040E0F2
:100B600050E0822B932BA42BB52BBA2FA92F982FB3
:100B70008827208930E040E050E0822B932BA42B83
:100B8000B52B8824982EA92EBA2EB6016450704039
:100B9000CE010E946204D70151962C9130E040E0D2
:100BA00050E0282939294A295B29A0E0B0E028171C
:100BB00039074A075B0771F46114710469F02E96D6
:100BC000C301BE01A8010E944E4BF301E00FF11FCB
:100BD000108202C000E010E0C801DF91CF911F91A8
:100BE0000F91FF90EF90DF90CF90BF90AF909F90CC
:100BF0008F907F906F900895E6EEF7E0E80FF11D7B
:100C000080810895EF92FF92CF93DF93E62FF72F25
:100C1000E82EE7017E01F92EE70180E090E016C0A2
:100C20009E01A991B0E0AA0FBB1FAA51BA4F11961D
:100C30006C916083D9012C91A22FB0E0AA0FBB1F49
:100C4000AA51BA4F2C9121830196329684179507A9
:100C500038F3440F551FCA01DF91CF91FF90EF90F9
:100C60000895CF93DF93E82FF92F862F972FEC016C
:100C700020E030E011C0A081B0E0AA51BB4F8C91C0
:100C80008295807FA181B0E0AA51BB4F9C91892BB6
:100C900089932F5F3F4F3296C901880F991F8417A0
:100CA000950748F3C901DF91CF9108959093791387
:100CB000809378131092721380E0089580937213DA
:100CC00008958091700B9091710B089580916E0B37
:100CD00090916F0B08950E94314B9C01B9018827B8
:100CE00077FD8095982F0E94C74720E03EEF4FEF99
:100CF00056E40E94E9469B01AC010E94914520E028
:100D000030E040E85FE30E9491450E941B44862F3B
:100D10000895AF92BF92CF92DF92EF92FF920F931E
:100D20001F93CF93DF937C016B018A01E90121E0DE
:100D3000433C5207B0F000D000D086EE98E0ADB74B
:100D4000BEB712969C938E93119714965C934E9314
:100D500013970E94E14B0F900F900F900F908FEF21
:100D600045C100D080E099E0EDB7FEB79283818362
:100D70000E94E14B0F900F90C7010E94221081E06A
:100D8000C114D10409F080E0B82EBB0C209741F0CB
:100D900081E090E02881222329F080E090E002C0E9
:100DA00081E090E0B82AB1FE06C08FE099E00E9491
:100DB0001A4C8EEF1BC1B0FE06C084E299E00E947F
:100DC0001A4CC0E6D9E0FB2DF33079F400D08CE664
:100DD00099E0ADB7BEB712969C938E9311970E947F
:100DE000E14B0F900F908DEF01C110926D13109297
:100DF0006C1386E090E0909367118093661186E50E
:100E000091E10E948B0DACE5B1E18E2D9F2DFC018F
:100E100086E001900D928150E1F785E490E0909397
:100E20006511809364110E94314BFC01BF0188273A
:100E300077FD8095982F0E94C74720E03EEF4FEF47
:100E400056E40E94E94620E03FEF4FE757E40E9456
:100E5000EF450E941B4470936311609362116534E7
:100E6000710509F361157105F1F27093710B6093CF
:100E7000700B00D000D0EDB7FEB7319622E839E014
:100E8000ADB7BEB712963C932E93119773836283CE
:100E90000E94E14BE0906C13F0906D13F701EA5A59
:100EA000FE4E128A0894E11CF11CF701EA5AFE4E2C
:100EB00086E0828B0894E11CF11CF0926D13E092A5
:100EC0006C130F900F900F900F90CE0160E170E0C7
:100ED0000E946C4BAC01970128593E4EC901BE01DE
:100EE0000E944E4BCE0160E170E00E946C4B20915D
:100EF0006C1330916D13280F391F30936D132093AD
:100F00006C1300D000D086E999E0ADB7BEB7129659
:100F10009C938E9311971496DC93CE9313970E9413
:100F2000E14BE0916C13F0916D13E859FE4EAEEA7F
:100F3000B9E08AE00D9001928150E1F720916C13A5
:100F400030916D13265F3F4F30936D1320936C13D8
:100F50001092701328593E4E0F900F900F900F90E3
:100F6000C901B601A8010E944E4B80916C1390916B
:100F70006D13800F911F90936D1380936C131092DB
:100F800077131092761310926F1310926E1381E004
:100F900090E060E870E00E948E0C8FEF9FEF9093DE
:100FA000741380937313109277131092761381E069
:100FB0008093711310927513C0917813D0917913A7
:100FC00080E090E00E948B0D60916211709163113E
:100FD0002091641130916511E0906C13F0906D13C5
:100FE0004CE551E108E611E1FE010995DF91CF9151
:100FF0001F910F91FF90EF90DF90CF90BF90AF9037
:1010000008956F927F928F929F92AF92BF92CF92EC
:10101000DF92EF92FF920F931F93CF93DF93F82EFF
:10102000962ED72E5A013901E80100D080E099E0D0
:10103000ADB7BEB712969C938E9311970E94E14B69
:101040000F900F90892D9D2D0E94221011E0A11468
:10105000B10409F010E0110F209751F0EE2041F09B
:1010600081E090E02881222329F080E090E002C016
:1010700081E090E0182B11FF05C089EB99E00E94F8
:101080001A4C43C110FF08C08FEC99E00E941A4C23
:10109000C0E6D9E08BE0E82E133009F436C1BF2D4D
:1010A000B13029F482E09AE00E941A4C21C0EF2D61
:1010B000E23009F02CC181E080937213B0927D136D
:1010C000A0927C13A114B10479F400D08BE29AE0D1
:1010D000ADB7BEB712969C938E9311970E94E14BC9
:1010E0000F900F9083EF14C170927B1360927A136C
:1010F00010926D1310926C13F0926611109267119A
:1011000086E591E10E948B0DACE5B1E1892D9D2D25
:10111000FC0186E001900D928150E1F785E490E0BA
:1011200090936511809364110E94314BFC01BF01C3
:10113000882777FD8095982F0E94C74720E03EEFD3
:101140004FEF56E40E94E94620E03FEF4FE757E4B7
:101150000E94EF450E941B447093631160936211DB
:101160006534710509F361157105F1F27093710B26
:101170006093700B00D000D0EDB7FEB7319622E837
:1011800039E0ADB7BEB712963C932E931197738397
:1011900062830E94E14B20916C1330916D13F90131
:1011A000EA5AFE4E128A2F5F3F4FF901EA5AFE4E6D
:1011B000F28A2F5F3F4F30936D1320936C13AE2C48
:1011C000BB2428593E4E0F900F900F900F90C901ED
:1011D000BE014E2D50E00E944E4B80916C139091B9
:1011E0006D138A0D9B1D90936D1380936C1300D02B
:1011F00000D086E999E0ADB7BEB712969C938E9366
:1012000011971496DC93CE9313970E94E14BE091D3
:101210006C13F0916D13E859FE4EAEEAB9E08AE026
:101220000D9001928150E1F720916C1330916D1374
:10123000C9010A9690936D1380936C130F900F90D1
:101240000F900F90CC20B9F0DC01A859BE4EE7E416
:10125000FAE087E001900D928150E1F780916C13E4
:1012600090916D13079690936D1380936C1381E0AA
:10127000809370130CC08A5A9E4EFC01128A255F1F
:101280003F4F30936D1320936C1310927013109294
:1012900077131092761310926F1310926E138F2D96
:1012A0008150823040F40E946B0690E0019660E825
:1012B00070E00E948E0C8FEF9FEF909374138093D9
:1012C0007313109277131092761381E08093711349
:1012D00010927513C0917813D091791380E090E04B
:1012E0000E948B0D609162117091631120916411C5
:1012F00030916511E0906C13F0906D134CE551E165
:1013000008E611E1FE01099503C08FEF01C086EFE9
:10131000DF91CF911F910F91FF90EF90DF90CF90D1
:10132000BF90AF909F908F907F906F900895CF92D5
:10133000DF92EF92FF920F931F93CF93DF938C0175
:10134000E62E10926D1310926C1323E030E0309370
:1013500067112093661186E591E10E948B0DACE543
:10136000B1E1802F912FFC0186E001900D92815018
:10137000E1F780916E0B90916F0B909365118093C4
:1013800064118091700B9091710B90936311809315
:10139000621140916C1350916D13FA01EA5AFE4E9E
:1013A000128A4F5F5F4FFA01EA5AFE4E8091661132
:1013B000828B4F5F5F4FFA01EA5AFE4E128A4F5FEF
:1013C0005F4FFA01EA5AFE4EE28A4F5F5F4F509339
:1013D0006D1340936C138E2D90E00197982F882702
:1013E000990FC0917A13D0917B13C81BD90B22E0BF
:1013F000C030D20710F0C0E0D2E048595E4E2091D4
:101400007C1330917D13280F391FCA01B901AE0139
:101410000E944E4B80916C1390916D138C0F9D1F09
:1014200090936D1380936C13E0926E1310926F1370
:101430000E946B0690E060E870E00E948E0C00D085
:1014400000D08FE49AE0EDB7FEB79283818380915C
:101450006C1390916D13948383830E94E14BC09130
:101460007813D09179130F900F900F900F9080E028
:1014700090E00E948B0D6091621170916311209138
:10148000641130916511E0906C13F0906D134CE590
:1014900051E108E611E1FE010995DF91CF911F911D
:1014A0000F91FF90EF90DF90CF900895CF92DF9251
:1014B000EF92FF920F931F93DF93CF9300D0CDB79E
:1014C000DEB7182F6A01790110926D1310926C1318
:1014D00085E090E0909367118093661186E591E135
:1014E00069837A830E948B0DACE5B1E169817A81D1
:1014F000862F972FFC0186E001900D928150E1F735
:10150000D0926511C09264118091700B9091710B13
:10151000909363118093621120916C1330916D133D
:10152000F901EA5AFE4E128A2F5F3F4FF901EA5A3B
:10153000FE4E80916611828B2F5F3F4FF901EA5A70
:10154000FE4E128A2F5F3F4FF901EA5AFE4E128B70
:101550002F5F3F4F30936D1320936C13E114F10410
:10156000A1F0C02EDD2428593E4EC901B701402FFD
:1015700050E00E944E4B80916C1390916D138C0D36
:101580009D1D90936D1380936C13C0907813D09031
:10159000791380E090E00E948B0D60916211709150
:1015A00063112091641130916511E0906C13F090FB
:1015B0006D134CE551E108E611E1F60109950F9034
:1015C0000F90CF91DF911F910F91FF90EF90DF90DF
:1015D000CF900895CF92DF92EF92FF920F931F93D7
:1015E000DF93CF9300D000D0CDB7DEB78C01198246
:1015F00084E08A831B826C8300D000D084E69AE06A
:10160000EDB7FEB79283818384E090E09483838377
:101610000E94E14BC0907813D09079130F900F90F7
:101620000F900F9080E090E00E948B0D6091700B06
:101630007091710B20916E0B30916F0BA8018E0190
:101640000F5F1F4FE4E0EE2EF12CF60109950F908D
:101650000F900F900F90CF91DF911F910F91FF90FE
:10166000EF90DF90CF900895AF92BF92CF92DF922C
:10167000EF92FF920F931F93CF93DF935C016B0167
:10168000F8019081818140917213413009F0A3C02B
:10169000392F20E090E0822B932B8430910509F0C4
:1016A00049C00E94AC0C882321F088E79AE00E9490
:1016B0001A4CF801E0E0EF01F801838190E0C82BBB
:1016C000D92BD0937413C093731300D000D08DE83E
:1016D0009AE0EDB7FEB792838183D483C3830E94DF
:1016E000E14BD0926F0BC0926E0B109275130F905E
:1016F0000F900F900F90609173136F5FC5010E9460
:101700009709882309F468C000D000D088EA9AE0DD
:10171000EDB7FEB792838183809173139091741318
:101720000196948383830E94E14B0F900F900F905A
:101730000F9051C08530910509F04DC0F8018281AC
:10174000F82EEE24838190E0E82AF92A0E94AC0C5E
:10175000E114F10441F500D000D084EC9AE0EDB73B
:10176000FEB7928381830C5F1F4F148303830E9413
:10177000E14B0F900F900F900F908FED9AE0B80112
:1017800045E150E00E945E4B0097E9F480917113AF
:10179000882309F580916E1390916F1390937413C1
:1017A0008093731310C000D000D085EF9AE0EDB79E
:1017B000FEB792838183F482E3820E94E14B0F9013
:1017C0000F900F900F9010927213809171138823D5
:1017D00011F080EF01C080E0DF91CF911F910F9158
:1017E000FF90EF90DF90CF90BF90AF900895EF9271
:1017F000FF920F931F93CF93DF9380916611909187
:1018000067118630910529F48DE09BE00E941A4C07
:1018100077C080917213813009F072C08FE19BE034
:101820000E941A4C809173139091741320916E133F
:1018300030916F138217930740F020916611309119
:1018400067112230310509F05BC0409175134F5F7D
:101850004093751300D000D000D0EDB7FEB731969D
:1018600022E33BE0ADB7BEB712963C932E9311979F
:1018700093838283448315820E94E14B8DB79EB788
:1018800006960FB6F8949EBF0FBE8DBF809175135C
:101890008A30A0F010927213109277131092761380
:1018A00010927413109273138AE59BE00E941A4CF5
:1018B00080917113882321F18EEE23C00E946B0664
:1018C00090E060E870E00E948E0CC0917813D09197
:1018D000791380E090E00E948B0D6091621170910D
:1018E00063112091641130916511E0906C13F090B8
:1018F0006D134CE551E108E611E1FE01099501C0C7
:1019000080E0DF91CF911F910F91FF90EF900895AC
:101910009093102E80930F2E80E008959C01CB01B0
:101920009695982F88279795879568EE73E00E9483
:10193000774A3695322F222737952795620F731FE6
:1019400040910F2E5091102E8EE793E120E030E071
:101950000E94F71780E008958EE793E10E947E18B9
:1019600080E008952F923F924F925F926F927F9204
:101970008F929F92AF92BF92CF92DF92EF92FF929F
:101980000F931F93DF93CF9300D000D000D0CDB73B
:10199000DEB7782E892E662E972EB901E42FF52F0B
:1019A00020E030E0A90180E090E0DC018B010850EC
:1019B00010405801CC24DD2479018A013E822D8219
:1019C00021C09C01AD012F5F3F4F4F4F5F4F3080D3
:1019D0002A153B054C055D0540F43E821D822181A0
:1019E0004D805E80420E511C02C0532C4424920153
:1019F00040E050E0E20EF31E041F151F0296A11DE9
:101A0000B11D32968A159B05AC05BD05D0F2A80123
:101A10009701E72DF82D80E090E07C0140804A821C
:101A20001982818109811A81080F111DC801A0E066
:101A3000B0E0280F391F4A1F5B1F0894E11CF11CFE
:101A4000329613E0E116F10449F7E62DF92D80E016
:101A500090E07C0180818C831B828181AB81BC8181
:101A6000A80FB11DCD01A0E0B0E0280F391F4A1F1B
:101A70005B1F0894E11CF11C3296B3E0EB16F104F5
:101A800049F780E090E06F5E7F4F8F4F9F4F02C01D
:101A900080709070620F731F841F951F9C014427F4
:101AA0005527211531054105510591F79B01AC01E1
:101AB0002095309540955095C90126960FB6F8941B
:101AC000DEBF0FBECDBFCF91DF911F910F91FF9071
:101AD000EF90DF90CF90BF90AF909F908F907F90CE
:101AE0006F905F904F903F902F90089580918E134C
:101AF00090918F130895282F392FD901E8E7FBE043
:101B00008D9181938BE0EE37F807D1F770938F13A7
:101B100060938E130895009749F0E8E7FBE0DC013D
:101B200081918D938BE0EE37F807D1F788E79BE042
:101B30000895009749F0E2E7FBE0DC0181918D9385
:101B40008BE0E837F807D1F782E79BE008957F92B2
:101B50008F929F92AF92BF92CF92DF92EF92FF92BD
:101B60000F931F93CF93DF93722E5801E60125E068
:101B7000E21622E0F20608F044C0209709F441C0C2
:101B8000E2E6E883DC011496EC911497E98315965C
:101B9000EC911597EA836B838701085F1F4FC12E75
:101BA0001C83D02E0D83E1E1EE83E2E0EF83FE01A2
:101BB000389699248D9081929394292D2630D1F7CF
:101BC000A42FB52FFE013E9699248D908192939477
:101BD000292D2630D1F77C8B6D8B3E8B7F8AC88E6A
:101BE000D98EBA01A50198010E94B20C9A8F8B8FF1
:101BF0006C96CE01B501A7010E944E4B0C5E1F4FA3
:101C000002C000E010E0C801DF91CF911F910F9159
:101C1000FF90EF90DF90CF90BF90AF909F908F900C
:101C20007F9008950F931F93CF93DF938B01EA0169
:101C30002E96BE0146E050E00E94414B882339F0C9
:101C400082E79BE0BE0146E050E00E94414B011557
:101C5000110531F0F80196E0099001929150E1F7F9
:101C6000DF91CF911F910F9108952F923F924F9244
:101C70005F926F927F928F929F92AF92BF92CF921C
:101C8000DF92EF92FF920F931F93DF93CF9300D0D9
:101C900000D000D0CDB7DEB72C01F90118018701C3
:101CA0008B8D9C8D2D8D3E8D009731F0D701EC9062
:101CB000B0EFEB22DC01EC922115310529F0D801BF
:101CC0008C918F70D9018C93C114D10479F0C80123
:101CD000019623E07F01D501FC010190CF01F601BF
:101CE00001926F012150C1F7F7015D01D8011496EF
:101CF0008C911497782E662415968C91159790E008
:101D0000682A792A8114910421F016968C91D401C5
:101D10008C93A114B10429F0D80117968C91D501A8
:101D20008C934114510459F0D801189686E09F0114
:101D30000D90F20101922F018150D1F7F901411567
:101D4000510559F0D8011E9686E09F010D90FA01C9
:101D50000192AF018150D1F7F90161157105A1F030
:101D6000D80154968C918A83198229813A81DB01AA
:101D70002D933C93D80155968C9190E0822B932B18
:101D8000DB0111969C938E93309789F0D80156967B
:101D90008C9156978C831B822B813C8131832083CD
:101DA00057968C9190E0822B932B91838083D8015E
:101DB00058963C91589720E059968C91599790E00D
:101DC000822B932B6816790629F55A968C918E836F
:101DD0001D823CE1E32EF12CE00EF11EB801625FA2
:101DE0007F4FC8010896A70193010E94B20CF80129
:101DF000238D30E04D815E81242B352B2817390748
:101E000049F42114310449F0C101B701A3010E9432
:101E10004E4B03C020E030E001C09301C90126967B
:101E20000FB6F894DEBF0FBECDBFCF91DF911F91EB
:101E30000F91FF90EF90DF90CF90BF90AF909F9069
:101E40008F907F906F905F904F903F902F9008956C
:101E50008F929F92AF92BF92CF92DF92EF92FF92BA
:101E60000F931F9300D000D0EDB7FEB712821182FE
:101E700014821382CC24DD24AA24BB248824992430
:101E80000E94350E0F900F900F900F901F910F91A1
:101E9000FF90EF90DF90CF90BF90AF909F908F908A
:101EA0000895FC019C01260F311D40E060E016C042
:101EB00051915E3221F05A3311F0552339F4DC018F
:101EC000A60FB11D4C936F5F40E008C0440F742F04
:101ED000770F770F740F452F4053470FE217F30723
:101EE00039F780E00895EF92FF920F931F93CF93FD
:101EF000DF937C01EB01042F10E001C0182FCE010D
:101F0000810F911D61E070E041E050E097010E9477
:101F1000A34B810FE82FF0E03197EC0FFD1F90816C
:101F20009A3021F0801710F4181741F7108280E0E2
:101F3000DF91CF911F910F91FF90EF900895EF9255
:101F4000FF920F931F93DF93CF930F92CDB7DEB71E
:101F50008C017C0120E0D7018D917D01982F90525A
:101F60009E3548F46091C6367091C73690E029835B
:101F70000E94774B29812F5F263069F700D000D06F
:101F8000EDB7FEB731968EE79BE0ADB7BEB71296C0
:101F90009C938E931197D80116968C91828313820D
:101FA0000E94E14B0F900F900F900F906091C636FA
:101FB0007091C7368AE090E00E94774B0F90CF91E6
:101FC000DF911F910F91FF90EF900895CF93DF93D2
:101FD000DC018DB79EB70E970FB6F8949EBF0FBE6B
:101FE0008DBFEDB7FEB7319681E89BE0CDB7DEB788
:101FF0009A8389838C918283138211968C91119795
:102000008483158212968C91129786831782139679
:102010008C9113978087118614968C9114978287E0
:10202000138615968C91848715860E94E14B8DB797
:102030009EB70E960FB6F8949EBF0FBE8DBFDF9170
:10204000CF910895CF93DF93DC018DB79EB70E97A4
:102050000FB6F8949EBF0FBE8DBFEDB7FEB7319699
:1020600084E99BE0CDB7DEB79A8389838C91828324
:10207000138211968C9111978483158212968C91FC
:1020800012978683178213968C91139780871186F7
:1020900014968C9114978287138615968C91848759
:1020A00015860E94E14B8DB79EB70E960FB6F89439
:1020B0009EBF0FBE8DBFDF91CF9108952F923F92AB
:1020C0004F925F926F927F928F929F92AF92BF9248
:1020D000CF92DF92EF92FF920F931F93CF93DF93F4
:1020E000382F292F6B01CB0160E170E00E94774A05
:1020F0005C01AA0CBB1CA80EB91EB094A194B10837
:10210000B3948FE290E0A80EB91E3B0144E0660C48
:10211000771C4A95E1F7E32EF22EC1E0D0E097EA72
:10212000492E9BE0592E1701260C371C82C0F7015F
:1021300081917F0100D000D0EDB7FEB7528241827D
:10214000838314820E94E14B0F900F900F900F90A9
:10215000C0FD04C080E290E00E94134CCE018F705D
:102160009070009741F56091C6367091C73689E04E
:1021700090E00E94774B80EF882E8FEF982E8E0C88
:102180009F1C01E110E013C0F40181914F01982FD1
:1021900090526091C6367091C7369F3520F49927CA
:1021A00087FD909502C08EE290E00E94774B01502F
:1021B000104051F735C0CC15DD05D1F500E010E039
:1021C0006091C6367091C73680E290E00E94774BEE
:1021D0000F5F1F4FA016B1069CF76091C636709135
:1021E000C73689E090E00E94774B4101830115C01A
:1021F000F40181914F01982F90526091C6367091F1
:10220000C7369F3520F4992787FD909502C08EE24E
:1022100090E00E94774B0F5F1F4F0C151D0544F394
:102220006091C6367091C7368AE090E00E94774B85
:102230002196CC16DD060CF07ACF6091C6367091EF
:10224000C7368AE090E00E94774BDF91CF911F91D3
:102250000F91FF90EF90DF90CF90BF90AF909F9045
:102260008F907F906F905F904F903F902F90089548
:10227000682F80E00E94181D80E090E00895CF92C2
:10228000DF92EF92FF920F931F93CF93DF93F801AA
:102290006701A895A0919313AA2309F06BC0CCEC19
:1022A000D0E2A0E3BDE00AE00D9009920150E1F711
:1022B000E0903A0DF0903B0D00913C0D10913D0DDA
:1022C000E092D620F092D7200093D8201093D92006
:1022D0008F017601E4EBCE2EEEE1DE2E0E94A70DFB
:1022E000EC01009731F48CEA9BE00E941A4C8EEFCF
:1022F00042C080E090E00E9484038C0180E090E086
:102300000E949203BC01C80144EB5EE19E0102E71A
:102310001CE10E94A0039B01AC016115710531F421
:1023200088EC9BE00E941A4C8DEF25C00EE018E16E
:1023300082E79CE1B801A9010E940206EC012AEDA6
:1023400030E2C901B801AE010E944E4BFE01E652D7
:10235000FF4D8CE18083FE01E552FF4D108281E04C
:10236000809393136096D0934125C0934025A89500
:1023700080E001C08FEFDF91CF911F910F91FF900F
:10238000EF90DF90CF9008951F93182F80919613B0
:102390008823F1F11C3129F0812F0E94FC0588234C
:1023A00021F56091C6367091C7368AE090E00E94B0
:1023B000774B1092961380914225909143259093EC
:1023C00099138093981381E08093901387E59DE0A3
:1023D00069E84AE953E10E9497158130910579F542
:1023E00085EE9BE00E941A4C2AC020914225309134
:1023F0004325F901E656FC4E1083C901019664E7B6
:1024000074E00E94634A909343258093422517C04D
:1024100080919713E82FF0E0E65CF24F9081191756
:1024200061F48F5F80939713843049F410924325B1
:102430001092422581E0809396131092971380E0CA
:1024400090E01F91089581E08093921387E59DE0CD
:1024500068E840E050E00E9497150895882311F045
:10246000889A01C0889881B381700895F8949093F8
:102470009513809394137894089520919413309138
:102480009513C90108950F931F93CF93DF93A895D8
:1024900080E00E942E128FE39CE90197F1F700C0C3
:1024A0000000F8940CEC10E2C0E0D0E007C0F801A6
:1024B00061918F0181E00E94181D21968091402535
:1024C00090914125C817D90790F38091C80085FFE6
:1024D000FCCF78948FE39CE90197F1F700C00000EE
:1024E00081E00E942E12A89580E090E0DF91CF91CC
:1024F0001F910F9108958F929F92AF92BF92CF92AA
:10250000DF92EF92FF920F931F93CF93DF93EC0133
:102510004B015A016901A89580E090E00E948B0D63
:10252000B50146E050E00E94414B882361F080E015
:1025300090E00E94990DB50146E050E00E94414BA9
:10254000882309F058C00E946106C816D90659F4BC
:1025500088EF9FEFE80EF91ECE01B401A5019601A8
:102560000E94340B56C099E3C91690E3D90671F561
:10257000ADB7BEB71E970FB6F894BEBF0FBEADBFC6
:10258000EDB7FEB7319685E09CE012969C938E9352
:1025900011978881828313828981848315828A813D
:1025A000868317828B81808711868C818287138630
:1025B0008D81848715860E94E14BEDB7FEB73E966C
:1025C0000FB6F894FEBF0FBEEDBF23C000D000D001
:1025D0008CE29CE0ADB7BEB712969C938E93119798
:1025E0001496DC92CE9213970E94E14B0F900F90BD
:1025F0000F900F900EC000D085E59CE0EDB7FEB7C0
:10260000928381830E94E14B0F900F90C5010E943D
:10261000221080E0DF91CF911F910F91FF90EF90FA
:10262000DF90CF90BF90AF909F908F900895CF9202
:10263000EF92FF920F931F93CF93DF93EC018A01E8
:1026400088819981009731F021E08F36920709F057
:102650001FC185C000D000D08FE69CE0EDB7FEB76B
:1026600092838183E0914625F09147258281938171
:10267000EDB7FEB7948383830E94E14B809A85B7C0
:10268000806185BF8091360180688093360180919A
:1026900036018064809336016898699A6A9A6B9AC9
:1026A0006C9A6D98729A739A749A0F900F900F901B
:1026B0000F9080E06CE046E90E94F81C80E068E33F
:1026C00071E10E943F1D81E067E646E90E94F81C27
:1026D00081E064EC71E10E943F1D83E292E10E947F
:1026E000880C8EE39DE00E94780300D089E79CE08F
:1026F000EDB7FEB7928381830E94E14B0F900F905C
:1027000080E090E00E9484030E949F0F8AE29DE097
:102710006FE371E10E947B0D00D08AE89CE0EDB789
:10272000FEB7928381830E94E14B0F900F9080E06F
:1027300090E00E948B0D0E9422100E94760D0E9454
:1027400056068AE99CE00E941A4C8FEA9CE00E949F
:102750001A4C8FE691E09983888381E09CC0809138
:10276000941390919513009759F18091941390913F
:10277000951300D000D029EC3CE0EDB7FEB73283D2
:102780002183948383830E94E14B0F900F900F90DD
:102790000F9080E090E00E94990DBC01209194136D
:1027A0003091951382E0A80100EF1CE0ABE0EA2E27
:1027B000CC24C3940E940108109295131092941394
:1027C00080919213882341F08CEF9CE00E941A4C78
:1027D0000E94F70B1092921380919313882361F05B
:1027E00080919613882341F480919713882321F4D4
:1027F0000E9443121092931380919013882309F43E
:1028000042C0F894409198135091991378948AE9B2
:1028100093E16EE078E10E9431068C0180E090E067
:1028200060E070E042E75CE12EE038E10E940D04D8
:10283000009729F184EA9EE16AEA7EE14CEA5EE1D2
:1028400022EB3EE104EB1EE1F2E7EF2EFCE1FF2E6E
:102850000E94280F7C01009779F06091AA1E709168
:10286000AB1E2091B21E3091B31E84EA9EE14CEA69
:102870005EE10E947B1207C089E09DE002C089E111
:102880009DE00E941A4CF8941092901378945DCFBA
:102890001982188283E0DF91CF911F910F91FF90F1
:1028A000EF90CF9008951F93CF93DF93EC01162FF5
:1028B000888580FF1DC0EC81FD813097C9F0D093E1
:1028C0004725C093462582E08887CE010696099564
:1028D000992787FD909502978230910510F0133863
:1028E00029F4CE01BE010E947C1402C081E08887D9
:1028F000DF91CF911F910895CF92DF92EF92FF92D7
:102900000F931F93CF93DF93EC017B01C09046257B
:10291000D09047250091442510914525F80103C02A
:102920000190F081E02DEC17FD0719F03097C1F709
:1029300046C0209709F443C08885882309F118868A
:102940000BC0C017D10729F0C80167E8AE010E948B
:102950005314F801008111810115110591F7EC81E3
:10296000FD81309769F0CE15DF0551F0D0934725F2
:10297000C0934625CE01069663E840E050E00995F5
:10298000E0914425F0914525CE17DF0791F4888129
:10299000998190934525809344250DC08081918134
:1029A0008C179D0729F4888199819183808303C0C6
:1029B000FC01309799F7D0924725C0924625DF91C8
:1029C000CF911F910F91FF90EF90DF90CF900895DE
:1029D0001F93CF93DF9310924825C0914425D09147
:1029E000452511E00EC08985882341F01887198696
:1029F000CE0162E840E050E00E9453140990D88173
:102A0000C02D209781F7DF91CF911F91089580917C
:102A1000F325982F9F5F9093F325089560914625A5
:102A2000709147250E947C1408958AE88093F325CD
:102A300010924A251092492510924525109244255E
:102A400010924725109246250895809148258823A5
:102A500011F00E94E81470914925772309F455C0BC
:102A600020914A2530E0F901EE0FFF1FEE0FFF1F06
:102A7000E20FF31FE55BFA4D60816093F22541811F
:102A800052815093F1254093F02583819481909356
:102A9000EF258093EE252F5F3F4F2F7130702093ED
:102AA0004A25715070934925009741F5809144253E
:102AB0009091452518C080914825882311F00E94E7
:102AC000E8144091F0255091F1258091EC259091EA
:102AD000ED256091F2250E945314E091EC25F091D0
:102AE000ED25808191819093ED258093EC25809157
:102AF000EC259091ED250097F1F607C0613819F4A7
:102B000021E0FC0120870E945314809148252091E8
:102B1000492530E0280F311DC901089580914825CD
:102B20002091492530E0280F311DC9010895709189
:102B300049257032D9F020914A25270F2F71209313
:102B4000EB2530E0F901EE0FFF1FEE0FFF1FE20F44
:102B5000F31FE55BFA4D6083528341839483838343
:102B60007F5F7093492520E030E002C021E030E033
:102B7000C9010895CF93DF93C0914625D091472591
:102B80000E945314D0934725C0934625DF91CF91DF
:102B90000895FC01AB0190914425809145259C014D
:102BA000A32FB22F03C00D90BC91A02DAE17BF076D
:102BB00091F01097C1F7309771F090838183F09373
:102BC0004525E093442581E0808717821682CF0156
:102BD00061E80E94BA150895FC01009741F08085D4
:102BE0008150823020F481E08187809348250895C8
:102BF00021E030E0FC018085882311F420E030E002
:102C0000C90108958091F4259091F525009729F444
:102C10001092F7251092F62508950E94601BE0910E
:102C2000F425F091F5252281338140815181240FD3
:102C3000351F281B390B0CC0428153816081718183
:102C4000460F571F481B590B4217530708F49A01A8
:102C50000480F581E02D309779F7280F391F3093E4
:102C6000F7252093F62508958DE69DE00E94EC154A
:102C70000895CF92DF92EF92FF920F931F93CF931D
:102C8000DF937C01FC0180819181009729F08A35D6
:102C9000910509F06EC00BC01092F5251092F42535
:102CA0008AE590E0F7019183808381E066C0673810
:102CB00049F5CA01E091F425F091F52503C004809F
:102CC000F581E02D309741F32681378128173907A8
:102CD000B1F3E093F425F093F5250FC016962D91EE
:102CE0003C9117972817390739F414962D913C9188
:102CF000159735832483DF01FD01A481B5811097E9
:102D000069F7CECF623861F6C091F425D091F525F0
:102D100000E010E02BC0CE010E94DF2C0097F1F004
:102D20008E819F8168E8AE010E9497150097A1F4FB
:102D30001F821E828C819D810115110521F0F801F1
:102D40009583848304C09093F5258093F4251D8298
:102D50001C820E940216D8CF0E9434168E019C81DC
:102D60008D81C92EE6016E01D82EE601209799F6D5
:102D700097CFF7011182108283E0DF91CF911F91ED
:102D80000F91FF90EF90DF90CF900895CF93DF9356
:102D9000EC010E9434168E819F81009769F0E091CA
:102DA000F425F091F52506C0EC17FD07A9F0048085
:102DB000F581E02D3097C1F7809146259091472508
:102DC0009F838E838091F4259091F5259D838C833C
:102DD000D093F525C093F4250E940216DF91CF9180
:102DE0000895CF93DF93EC010E94BF2CCE010E9487
:102DF000C616DF91CF910895CF93DF93EC010E9427
:102E0000CB2CCE010E94C616DF91CF910895CF93AF
:102E1000DF93EC010E94D52CCE010E94C616DF91F3
:102E2000CF910895FC0180819181860F971F918336
:102E300080830E940216089521E030E0FC01868123
:102E40009781009711F020E030E0C9010895FC015E
:102E50002281338180819181280F391FC901089512
:102E6000FC0180819181089521E030E08091F4257A
:102E70009091F525009711F420E030E0C901089504
:102E80008091F4259091F525009729F02091F62561
:102E90003091F72502C020E030E0C9010895CF93BA
:102EA000DF93EC01E091F425F091F5258E179F0753
:102EB00041F48C819D819093F5258093F42514C075
:102EC000FC01309731F0848195818C179D07C1F703
:102ED00007C01D821C821F821E82DF91CF91089540
:102EE0008C819D81958384830E940216F2CFCF92BC
:102EF000DF92EF92FF920F931F93CF93DF938C019A
:102F00007A01FC0180819181009729F08B34910531
:102F100009F051C01EC089EF95E20E940F2DC82E06
:102F2000E6017E01F92EE70109C06C817D81CE01A9
:102F300002960E94F1160990D881C02D2097A9F71A
:102F400081E08093F8258BE490E0F8019183808301
:102F500037C06838A9F589EF95E20E940F2DC82E79
:102F6000E6016E01D92EE60123C0CE010296E816D5
:102F7000F906D9F489EF95E2BE010E945D2DE0903B
:102F80004625F09047258A859B8590934725809319
:102F90004625EC85FD85309719F08E859F8509952E
:102FA000F0924725E0924625CECF0990D881C02DDA
:102FB0002097D9F6C8CFF8011182108283E001C0B2
:102FC00081E0DF91CF911F910F91FF90EF90DF9003
:102FD000CF9008951092F82589EF95E20E940B2D6D
:102FE00086E89DE060E070E00E94C91508950F93A7
:102FF0001F93CF93DF93EC01009146251091472555
:103000001B870A875D874C873F872E878091F8252D
:10301000882379F086E89DE09093472580934625A4
:10302000CE0102960E94F116109347250093462583
:1030300002C07D836C8389EF95E2BE010E945D2D05
:1030400089EF95E2BE010E94962DDF91CF911F91ED
:103050000F9108950F931F93CF93DF93EC0180910D
:10306000F825882391F0009146251091472586E8A0
:103070009DE09093472580934625CE0102960E94BD
:10308000FC16109347250093462589EF95E2BE0173
:103090000E945D2D89EF95E2BE010E94962DDF9181
:1030A000CF911F910F9108950F931F93CF93DF93AB
:1030B000EC018091F825882391F00091462510912C
:1030C000472586E89DE09093472580934625CE01CD
:1030D00002960E940717109347250093462589EF13
:1030E00095E2BE010E945D2D89EF95E2BE010E942E
:1030F000962DDF91CF911F910F910895CF93DF937C
:10310000EC018091F825882329F0CE0102960E94D7
:103110004F1704C01F821E821986188689EF95E218
:10312000BE010E945D2DDF91CF910895CF93DF9373
:10313000EC018091F825882331F0CE0102960E949F
:103140001C179C0114C089EF95E20E940F2DE82FF7
:10315000F92F06C0EC17FD0741F00190F081E02D3A
:103160003097C1F721E030E002C020E030E0C90133
:10317000DF91CF910895E6E4F1E0308120819081E4
:1031800080818295869586958370307C830F269505
:1031900026952073820F92959C70890F0895BF9297
:1031A000CF92DF92EF92FF920F931F93DF93CF9313
:1031B00000D0CDB7DEB70E947C1D0E94881D80E044
:1031C0006CE046E00E94F81C81E068E046E00E9466
:1031D000F81C80E00E94731D0E94501B84B784B7C6
:1031E00084B784B784B7EAECF6E322E432E43183AF
:1031F00020833A968DB79EB70A97E817F907B8F378
:1032000000D000D080EB91E0ADB7BEB712969C9392
:103210008E93119780E99DE014969C938E9313975B
:103220000E94F34B0F900F900F900F900E947D2EF5
:103230000E9415158DE69DE060E070E00E94C915C2
:103240000E94EA17E091C10DF091C20D09950E940C
:10325000BB1890E00E947A30CE0101960E94371B85
:10326000882359F000D080E991E0EDB7FEB7928352
:1032700081830E94F34B0F900F908E010F5F1F4FC1
:10328000C8010E942B250E94411B7C010E94461B05
:10329000BC01C701A8010E94A4200E949F1A0E949D
:1032A00089200E944B1B0E94342200D083E891E0C9
:1032B000ADB7BEB712969C938E9311970E94F34BB5
:1032C00000D0EDB7FEB731960FE711E0ADB7BEB74E
:1032D00012961C930E9311978A81828313820E9407
:1032E000F34BEDB7FEB73196ADB7BEB712961C9350
:1032F0000E9311978981828313820E94F34B0F9062
:103300000F908DE791E0EDB7FEB7928381830E9425
:10331000F34B0F900F900E945832E091330EF091D2
:10332000340E0995E0911A0EF0911B0E0995E0916B
:10333000EF0DF091F00D09950091180E1091190EF6
:10334000C090310ED090320E0E948620B82EE090B0
:103350003F0EF090400EF7010995009749F0F701F4
:103360000995BC0180E890E00E94634A7B0103C09C
:1033700080E8E82EF12C0E9437222DB73EB72C5062
:1033800030400FB6F8943EBF0FBE2DBFEDB7FEB76D
:1033900031962BE431E0ADB7BEB712963C932E9335
:1033A000119713830283D582C482B6821782F18675
:1033B000E086828713860E94F34BEDB7FEB73C96FA
:1033C0000FB6F894FEBF0FBEEDBF86E69EE060E04C
:1033D00070E00E94C9158EE692E00E94932C00D006
:1033E00083E491E0ADB7BEB712969C938E9311978C
:1033F0000E94F34B0F900F900F900F90CF91DF91A1
:103400001F910F91FF90EF90DF90CF90BF900895A4
:10341000AF92BF92CF92DF92EF92FF920F931F93E2
:10342000CF93DF930E94CF189CE3A92EB12CC12C1F
:10343000D12CC6E2D1E00E9425150E94941D8091F6
:10344000112E9091122E009729F001979093122E31
:103450008093112EE090132EF090142E0091152ED3
:103460001091162E0E946D1BE616F7060807190725
:1034700011F30E946D1B6093132E7093142E809392
:10348000152E9093162EA60195010E948A4A611569
:1034900071058105910511F40E94BB2E8091132EB8
:1034A0009091142EA091152EB091162E9370A070AD
:1034B000B07083309105A105B10509F0BCCFEAECED
:1034C000F6E38081918122E482349207A9F000D052
:1034D00000D0ADB7BEB71296DC93CE931197EA5CDD
:1034E000F6431496FC93EE9313970E94F34B0F90C0
:1034F0000F900F900F909FCF3A96B1E4E53FFB07F6
:1035000000F399CF00D000D000D0EDB7FEB73196D0
:1035100020E231E0ADB7BEB712963C932E931197DF
:1035200093838283758364830E94F34B8DB79EB728
:1035300006960FB6F8949EBF0FBE8DBF08950F93E9
:103540001F93DF93CF93CDB7DEB7A2970FB6F89452
:10355000DEBF0FBECDBF82E290E00E94A94E8983FC
:103560009A83982F9B50903108F08A839A81909586
:10357000891709F470C000D08BEE91E0ADB7BEB7EB
:1035800012969C938E9311970E94F34B8E010D5FC0
:103590001F4F0F900F90D80180E090E0FC01E553A1
:1035A000FE4FE491ED93019688309105B9F7F894B8
:1035B000CE01039660E070E048E050E00E94AF4E1C
:1035C000D80180E090E0FC01ED52FE4FE491ED93D4
:1035D00001968E309105B9F7CE01039668E070E050
:1035E0004EE050E00E94AF4E80E090E0FC01EF51D1
:1035F000FE4FE491D801ED938D0101968A3091053B
:10360000A9F7CE01039666E170E04AE050E00E941F
:10361000AF4E84E290E06DEC7BEA0E94C74E86E2FA
:1036200090E060E070E00E94C74E88E290E060E0C9
:103630000E94B94E80E290E060E070E00E94C74EC8
:103640008AE1898385EE8A8369817A8182E290E0CA
:103650000E94C74E78948981A2960FB6F894DEBF77
:103660000FBECDBFCF91DF911F910F910895F894B8
:1036700060E070E042E050E00E94914E789480E07B
:10368000089584E290E00E94A94E089586E290E0B9
:103690000E94A94E089588E290E00E94A14E0895EC
:1036A000F8941092B60016BC83EF87BD82E084BD0B
:1036B00094E095BD95B395BB80936E007894089582
:1036C0002091FB253091FC258091FB259091FC25D4
:1036D00028173907A9F7C901089520911F2E3091A5
:1036E000202E4091212E5091222E80911F2E9091BC
:1036F000202EA091212EB091222E281739074A079B
:103700005B0759F7B901CA01089560931F2E7093A2
:10371000202E8093212E9093222E0895CF93DF9315
:10372000EC010E94601BC80FD91F0E94601B8C1BFC
:103730009D0B97FDFACFDF91CF91089584309105CD
:1037400048F00397880F991F880F991F96958795C2
:103750000197F1F70895CF93DF93EC0184EE93E0A6
:1037600005C00E949E1B219787EE93E02097C9F722
:10377000DF91CF9108950F931F931FB7F894209175
:10378000FB253091FC25280F391F3093FC25209311
:10379000FB252091FD25FC01E20FF11D0091C32FB7
:1037A00060911B2E70911C2E80911D2E90911E2ECB
:1037B000DF012CC0A058B04020911F2E3091202E48
:1037C0004091212E5091222E2F5F3F4F4F4F5F4F40
:1037D00020931F2E3093202E4093212E5093222E83
:1037E0000023A1F02091172E3091182E4091192E10
:1037F00050911A2E2F5F3F4F4F4F5F4F2093172E40
:103800003093182E4093192E50931A2EA038B105DC
:1038100088F69F01220F232F221F330B319540E0A2
:1038200050E0260F371F481F591F20931B2E30933F
:103830001C2E40931D2E50931E2EEF77F070E093B8
:10384000FD251FBF1F910F9108951F920F920FB674
:103850000F920BB60F9211242F933F934F935F93C8
:103860006F937F938F939F93AF93BF93EF93FF9348
:103870008091FB259091FC2501969093FC258093E7
:10388000FB258091FD258F5F8093FD258091FD258F
:1038900087FF15C01092FD2580911F2E9091202E3C
:1038A000A091212EB091222E0196A11DB11D8093D1
:1038B0001F2E9093202EA093212EB093222E809124
:1038C000C32F8823F1F08091FE258F5F8093FE2522
:1038D0008091FE2587FF15C01092FE258091172E3E
:1038E0009091182EA091192EB0911A2E0196A11D1B
:1038F000B11D8093172E9093182EA093192EB0937C
:103900001A2E0E943417009711F00E943416FF916E
:10391000EF91BF91AF919F918F917F916F915F9147
:103920004F913F912F910F900BBE0F900FBE0F90B4
:103930001F9018951F920F920FB60F920BB60F9211
:1039400011242F933F934F935F936F937F938F93A4
:103950009F93AF93BF93EF93FF938091C600E09145
:10396000252EF091262E309709F00995FF91EF91C1
:10397000BF91AF919F918F917F916F915F914F9187
:103980003F912F910F900BBE0F900FBE0F901F9085
:1039900018951F920F920FB60F920BB60F9211242B
:1039A0002F933F934F935F936F937F938F939F9347
:1039B000AF93BF93EF93FF938091CE00E091232EBE
:1039C000F091242E309709F00995FF91EF91BF9166
:1039D000AF919F918F917F916F915F914F913F91A7
:1039E0002F910F900BBE0F900FBE0F901F90189548
:1039F000882371F41092C5006093C40088E9809315
:103A0000C1004093C2001092262E1092252E0895D8
:103A1000813069F41092CD006093CC0088E98093E6
:103A2000C9004093CA001092242E1092232E0895AC
:103A3000882339F48091C00085FFFCCF6093C600D5
:103A40000895813031F48091C80085FFFCCF6093E8
:103A5000CE0008951F93182F8A3031F48091FF25EE
:103A60006DE00E94181D02C08D3029F08091FF2565
:103A7000612F0E94181D80E090E01F910895882317
:103A800029F47093262E6093252E0895813021F419
:103A90007093242E6093232E0895EF92FF921F932C
:103AA000CF93DF93182FE62EE7017E01F72EE70173
:103AB0000CC08A3021F4812F6DE00E94181D69919D
:103AC0006D3019F0812F0E94181D8881882389F795
:103AD000DF91CF911F91FF90EF900895682F80E0C4
:103AE0000E94181D08958093FF258CE99DE0909316
:103AF000C7368093C636089584B7877F84BF88E130
:103B00000FB6F89480936000109260000FBE089585
:103B10002FE088E190E00FB6F894A89580936000BC
:103B20000FBE209360000895A895089588E10FB610
:103B3000F89480936000109260000FBE0895F8948E
:103B400028E088E190E00FB6F894A8958093600093
:103B50000FBE20936000FFCF8091372E90E0FC01D4
:103B6000EE0FFF1F9695982F882797958795E80F5A
:103B7000F91FE85CF14D1082089580912E2E90E09F
:103B800008958091390181FD0CC081E491E06FE1DD
:103B900040E00E940B24813039F021E030E0813197
:103BA00029F020E030E002C021E030E0C9010895B2
:103BB0008091390181FD12C081E491E06FE140E024
:103BC0000E940B24982F8151823050F09F3141F098
:103BD000913041F081E0923031F402C081E00895EB
:103BE00080E0089580E00895CF93DF93C0E1D7E2AD
:103BF0000E94D81D882311F42197D1F7DF91CF912E
:103C00000895E9E3F1E0808180818D7F80838DE0FC
:103C100090E00197F1F782E491E06FE140E023E06A
:103C20000E94152483E090E00197F1F708950E9427
:103C3000F41D0E94011E8091390182608093390138
:103C4000809145308823E9F180919400909195000E
:103C5000209156303091573082179307A0F480910D
:103C6000223090912330A0912430B09125308C5790
:103C7000914EAF4FBF4F8093223090932330A0934B
:103C80002430B09325308091940090919500821B50
:103C9000930BA0E0B0E0209122303091233040918E
:103CA000243050912530820F931FA41FB51F80939D
:103CB000223090932330A0932430B093253010927B
:103CC00045301092C32F809147308823E9F18091CD
:103CD00094009091950020915A3030915B3082177A
:103CE0009307A0F480912A3090912B30A0912C3032
:103CF000B0912D308C57914EAF4FBF4F80932A30EB
:103D000090932B30A0932C30B0932D308091940061
:103D100090919500821B930BA0E0B0E020912A3097
:103D200030912B3040912C3050912D30820F931FC9
:103D3000A41FB51F80932A3090932B30A0932C3072
:103D4000B0932D301092473008958091C32F88236F
:103D500021F00E94D81D0E94171E80E090E0089577
:103D60009091390191FD0AC0282F803108F02FE091
:103D700085E491E06FE040E00E9415240895B82F9B
:103D8000A92FF62FE72F2091C62F3091C72F4091F2
:103D9000C82F5091C92F2F5F3F4F4F4F5F4F209338
:103DA000C62F3093C72F4093C82F5093C92F862F0B
:103DB0008E5F87FF0CC08091C02F9091C12F01961C
:103DC0009093C12F8093C02F2FEF3FEF0BC020E0C7
:103DD00036E2C9016B2F7A2F4F2F5E2F0E944E4B78
:103DE00020E030E0C901089581E491E06FE140E016
:103DF0000E940B2408950F931F93182F883049F0C9
:103E0000863039F0893029F0863119F0893109F08E
:103E100041C08091390181FD40C00E94F41D0E9483
:103E2000F41E082F181709F43BC0183019F40E942B
:103E3000011E29C0193141F48631A9F482E491E0D0
:103E40006FE140E029E009C0163169F4893159F485
:103E500082E491E06FE140E026E00E941524E3E077
:103E6000F0E03197F1F782E491E06FE140E0212F3B
:103E70000E941524083019F4E9E6F1E002C0E3E0FD
:103E8000F0E03197F1F70E94F41E811749F023E426
:103E900030E008C022E430E005C024E430E002C095
:103EA00020E430E0C9011F910F91089580919400A2
:103EB0009091950090935B3080935A3021E020934D
:103EC00047302093C32F8091390181FF16C0809124
:103ED00094009091950090935730809356302093A2
:103EE00045302093C22F7894809139018D7F809343
:103EF00039018091C22F8823E1F786E10E94FB1EE1
:103F00000E94F41D08958091C32F882311F40E940C
:103F1000561F81E090E008950F931F938091C32F67
:103F2000882359F08091390181FD74C00E94D81D09
:103F3000882309F46FC000E003C00E94831F01E0E2
:103F400080919400909195009093553080935430D7
:103F500011E010934430789486E00E94FB1E109389
:103F60002F2E1092470180912F2E8823E1F7809108
:103F700047018E3010F010E001C01FEF86E10E9473
:103F8000FB1E809144308823E9F180919400909148
:103F90009500209154303091553082179307A0F44A
:103FA00080911E3090911F30A0912030B09121302F
:103FB0008C57914EAF4FBF4F80931E3090931F3060
:103FC000A0932030B093213080919400909195007F
:103FD000821B930BA0E0B0E020911E3030911F3087
:103FE0004091203050912130820F931FA41FB51FA4
:103FF00080931E3090931F30A0932030B0932130D7
:1040000010924430002311F00E94A51E21E030E000
:1040100016FD02C020E030E0C9011F910F91089504
:104020008093822608950E94F41E8250813130F4DC
:10403000E82FF0E0EB52F24F8081089581E008957F
:10404000282F8EE691E060E245E00E941524089555
:104050008FEF80934E018CE691E060EF44E022E028
:104060000E9415248CE691E06EE041E025E00E947C
:10407000152480E880936F018091460180936D0143
:1040800084E491E060E245E021E00E941524089577
:10409000CF93DF93CDEFD3E0CE010197F1F70E94EC
:1040A00001241092382E1092BA2E10923C2F1092AA
:1040B000372E1092362EE9E3F1E080818E7F8083E7
:1040C00080818D7F808381EC9DE00197F1F7808175
:1040D0008160808382E491E06FE140E023E00E9410
:1040E00015242197F1F780915D0180915E010E9476
:1040F000282087EB9DE060E070E00E94C9150E94D7
:10410000561F81E090E0DF91CF9108958091812644
:104110000895DF93CF930F92CDB7DEB789830E94C6
:10412000F41D29812093812688E491E06FE140E02D
:104130000E9415240F90CF91DF9108950E9489204D
:1041400086E00E94FB1E08958093620190936301B4
:1041500060936001709361014115510531F1FA01DD
:10416000819180936B01DA0111968C9180936A01A1
:10417000DF011196818180936901FD0131961196CD
:104180008C9180936801DF01119681818093670192
:10419000FD01319611968C91119780936601818172
:1041A00080936501828180936401089587EB9DE08F
:1041B0000E94EC1581E080932E2E8091302E9091FC
:1041C000312E01969093312E8093302E80910A30BB
:1041D00090910B30A0910C30B0910D300196A11D43
:1041E000B11D80930A3090930B30A0930C30B093A4
:1041F0000D3081E090E00895EF92FF92CF93DF932E
:104200005091372E252F30E0F901EE0FFF1F369524
:10421000322F222737952795E20FF31FE85CF14DE7
:104220004081442309F4CEC02091390121FDCAC048
:104230002091C32F222309F4C5C047FF16C00E9456
:10424000AC1D8091F62F9091F72FA091F82FB0918F
:10425000F92F0196A11DB11D8093F62F9093F72F92
:10426000A093F82FB093F92FADC04330B0F40E9463
:10427000AC1D8091F22F9091F32FA091F42FB0916B
:10428000F52F0196A11DB11D8093F22F9093F32F6E
:10429000A093F42FB093F52F95C0C42FD0E02297B0
:1042A0006C177D07B0F40E94AC1D8091EE2F9091A9
:1042B000EF2FA091F02FB091F12F0196A11DB11D0C
:1042C0008093EE2F9093EF2FA093F02FB093F12FC8
:1042D00079C0652F70E09B01220F331F7695762FF2
:1042E000662777956795260F371F275C314DB901F3
:1042F00050E00E944E4B2091372E822F90E0FC011F
:10430000EE0FFF1F9695982F882797958795E80FB2
:10431000F91FE854F14D80818093272E822F90E081
:10432000FC01EE0FFF1F9695982F8827979587958C
:10433000E80FF91FE85CF14D10822F5F2093372EB4
:10434000233010F01092372E8091372E90E0FC0130
:10435000EE0FFF1F9695982F882797958795E80F62
:10436000F91FE85CF14D8081882311F00E94D6206E
:10437000609147016093282E80912D2E882311F0A3
:10438000681710F460932D2E84E070E00E943232A2
:104390006091272E83E070E00E9432328091CA2F14
:1043A0009091CB2FA091CC2FB091CD2F0196A11D34
:1043B000B11D8093CA2F9093CB2FA093CC2FB09395
:1043C000CD2F02C0C0E0D0E0CE01DF91CF91FF90B1
:1043D000EF9008950F931F93DF93CF930F92CDB774
:1043E000DEB78C01FC0180819181009729F0F5E016
:1043F00081319F0769F506C081E195E0F80191835D
:1044000080832BC0623849F510922E2E0E94AC3169
:104410008FB78983F8940E94093160E870E00E94A8
:10442000FC2029812FBF1816190644F40E9404317C
:10443000E091390EF0913A0E0995DECF80912B2E46
:1044400090912C2E019690932C2E80932B2ED4CFCE
:10445000F8011182108283E001C081E00F90CF91BA
:10446000DF911F910F9108950E94B01E08958091D1
:10447000390181FD07C085E491E06FE040E00E94D2
:104480000B24089580E10895DF92EF92FF920F933D
:104490001F93CF93DF93D82E8091390181FF1AC0EB
:1044A000809194009091950090935730809356306E
:1044B00081E0809345308093C22F809139018D7FB8
:1044C0008093390180E197E22091C22F222311F0DD
:1044D0000197D1F70E94F41D8091C32F882309F41E
:1044E00041C0809147308823E9F1209194003091B8
:1044F000950080915A3090915B3028173907A0F4CD
:1045000020912A3030912B3040912C3050912D3019
:104510002C57314E4F4F5F4F20932A3030932B3022
:1045200040932C3050932D30209194003091950081
:10453000281B390B40E050E0E0902A30F0902B30FF
:1045400000912C3010912D302E0D3F1D401F511F1A
:1045500020932A3030932B3040932C3050932D30C1
:104560001092473089E10E94FB1E86E00E943D3296
:10457000009751F00E943722C82F86E00E943D32FA
:1045800081500E94B01E02C0C0E0D0E08091940033
:1045900090919500909359308093583081E08093AA
:1045A0004630F8948091390182608093390180917E
:1045B00039018D7F809339016D2D6E5F80E096E229
:1045C0000E94532478948091BE2F9091BF2F019622
:1045D0009093BF2F8093BE2F0E94F41D82E491E040
:1045E00060EE45E00E940B24182F86E00E943D32C9
:1045F000009719F08C2F0E94B01E809146308823BE
:10460000E9F120919400309195008091583090917B
:10461000593028173907A0F42091263030912730DF
:1046200040912830509129302C57314E4F4F5F4FD9
:1046300020932630309327304093283050932930F0
:104640002091940030919500281B390B40E050E0F8
:1046500060912630709127308091283090912930D8
:10466000260F371F481F591F2093263030932730BD
:104670004093283050932930109246308091C32FB8
:10468000882371F0809194009091950090935B3015
:1046900080935A3081E0809347300E94561F02C0B9
:1046A0000E94171E113011F0112369F58091063018
:1046B00090910730A0910830B09109300196A11D6A
:1046C000B11D8093063090930730A0930830B093CB
:1046D00009308CE00E943D32009709F445C080917A
:1046E000E22F9091E32FA091E42FB091E52F019656
:1046F000A11DB11D8093E22F9093E32FA093E42F8F
:10470000B093E52F31C01330A9F48091FE2F909122
:10471000FF2FA0910030B09101300196A11DB11D75
:104720008093FE2F9093FF2FA0930030B093013021
:1047300012E01DC01530A9F48091EA2F9091EB2F63
:10474000A091EC2FB091ED2F0196A11DB11D80938A
:10475000EA2F9093EB2FA093EC2FB093ED2F13E063
:1047600006C0173021F402C010E001C011E0812F13
:1047700090E0DF91CF911F910F91FF90EF90DF902C
:104780000895CF93DF93EB010E94BF1E9C01009719
:1047900031F4CE010E9444229C01009749F080919F
:1047A000C02F9091C12F01969093C12F8093C02F5D
:1047B000C901DF91CF9108950F931F938091C32F6B
:1047C000882321F40E94831F11E001C010E00E94A1
:1047D000F41E863111F0813119F40091470109C0AE
:1047E00086E491E06FE140E00E940B24082F000F67
:1047F000080F112311F00E94A51E802F1F910F9109
:1048000008951092842610928326EFE6F0E08081CE
:10481000806280830895FC018081862390E002C03D
:10482000959587954A95E2F70895F894FC01908153
:10483000862F8095892330E002C0220F331F4A95CE
:10484000E2F72623282B20837894089520917B017A
:10485000322F33503D37E0F4FC012193215030E0FA
:10486000A9014F575E4FA0E8B1E06D916193A41785
:10487000B507D9F7FC01E058FF4F2F573E4FD9013C
:104880002C9120838F579F4F21E0FC0120830895B6
:10489000DC011C92FC01E058FF4F10828F579F4FA4
:1048A000FC0110820895FC01609380010196635021
:1048B000860F911DA1E8B1E021912D93E817F9072A
:1048C000D9F708951F920F920FB60F920BB60F9261
:1048D00011242F933F934F935F936F937F938F9305
:1048E0009F93AF93BF93EF93FF9380914701809382
:1048F000282E2091362E30E0C901880F991F369559
:10490000322F222737952795820F931F885C914D70
:104910000E9426248091362E8F5F8093362E83301E
:1049200010F01092362E0E94D620FF91EF91BF9189
:10493000AF919F918F917F916F915F914F913F9137
:104940002F910F900BBE0F900FBE0F901F901895D8
:104950001F920F920FB60F9211240F900FBE0F905F
:104960001F9018951F920F920FB60F9211240F905F
:104970000FBE0F901F9018951F920F920FB60F92B7
:1049800011240F900FBE0F901F9018951F920F9239
:104990000FB60F9211241092C22F0F900FBE0F90DE
:1049A0001F9018951F920F920FB60F92112410921C
:1049B000C22F0F900FBE0F901F9018951F920F924D
:1049C0000FB60F9211248F9381E080932E2E8F913A
:1049D0000F900FBE0F901F9018951F920F920FB659
:1049E0000F92112410922F2E0F900FBE0F901F9038
:1049F00018951F920F920FB60F9211248F939F93C9
:104A000080918326909184260196909384268093AA
:104A100083269F918F910F900FBE0F901F90189536
:104A2000FC01DB018C91808311968C91119781831D
:104A30000895FC01DB0190818C91981741F421E0ED
:104A400030E0918111968C911197981711F020E028
:104A500030E0C9010895FC0180818093C42F8181D9
:104A60008093C52F08950F931F93CF93DF93809169
:104A7000CA2F9091CB2FA091CC2FB091CD2F019622
:104A8000A11DB11D8093CA2F9093CB2FA093CC2F43
:104A9000B093CD2F0E945B28EC0185E896E20E943E
:104AA0000F2D0BC0D8011296ED91FC911397309702
:104AB00009F00995C8010E94D52D082F192F01155D
:104AC000110581F7209719F0CE010E944428DF914B
:104AD000CF911F910F9108950E9458320E94AC31DE
:104AE0000E94E8250E94582882E090E060E072E091
:104AF00040E05EE12FEF31E00E9485270895CF92DC
:104B0000DF92EF92FF920F931F93CF93DF936C018D
:104B1000EB018A0185E896E20E940F2D0CC0D701B7
:104B20001496ED91FC911597309711F0CE010995EF
:104B3000C7010E94D52DE82EF92EE114F10479F772
:104B4000C601BE01A8010E944C28DF91CF911F91A0
:104B50000F91FF90EF90DF90CF900895BC0185E812
:104B600096E20E94962D0895BC0185E896E20E9487
:104B70005D2D0895CF93DF93EC018091C62F909126
:104B8000C72FA091C82FB091C92F0196A11DB11DAB
:104B90008093C62F9093C72FA093C82FB093C92F8F
:104BA000CE010E947228009769F00E942631E091A0
:104BB0001C0EF0911D0E8FE795E2BE01099521E0D4
:104BC00030E002C020E030E0C901DF91CF910895CC
:104BD00087E896E20E940B2D08950F93CF93DF9301
:104BE000EC017B836A8318865F834E8387E896E2B5
:104BF000BE010E94962DE0918926F0918A26309779
:104C000049F04C815D818A819B81688520E030E09C
:104C100001E00995DF91CF910F910895BC0187E8DC
:104C200096E20E945D2D08950F93DC0118961C9268
:104C30001897E0918926F0918A26309759F01296BC
:104C40008D919C91139760E040E050E020E030E0CF
:104C500000E009950F9108950F93DC01AB011496C4
:104C60002D913C91159781E018968C931897159685
:104C70007C936E931497E0918926F0918A26309761
:104C800039F012968D919C91139761E000E009959F
:104C90000F9108950F93DC01E0918926F0918A2607
:104CA000309769F014962D913C91159712968D913D
:104CB0009C91139718966C91A90101E009950F91A9
:104CC0000895E0918B26F0918C26309709F0099594
:104CD000089590938C2680938B26089590938A262E
:104CE00080938926089587E896E20E940F2D089503
:104CF000EF92FF920F931F93CF93DF938C01EB0101
:104D00007A0187E896E20E940F2D15C0DC01129609
:104D10002D913C9113972C173D0759F41696ED9160
:104D2000FC911797309761F0B801AE019701099592
:104D300007C00E94D52D282F392FC901009731F7C0
:104D4000DF91CF911F910F91FF90EF9008950895FB
:104D5000AF92BF92CF92DF92EF92FF920F931F9389
:104D6000DF93CF9300D0CDB7DEB75B010E9409314E
:104D70008C01FC01E080F180FA82E9820E945B31C3
:104D80009701220F331F220F331F2E5F3F4F8217D1
:104D9000930798F0CC24DD240DC0F8016281738163
:104DA00044815581C5010E9478260894C11CD11CFC
:104DB0000C5F1F4FCE14DF0480F30F900F90CF9144
:104DC000DF911F910F91FF90EF90DF90CF90BF90F8
:104DD000AF900895CF93DF93C8EAD6E26091BE26E4
:104DE0007091BF26CE014CE157E220E030E00E94F6
:104DF000F7170E947D306091BE267091BF260E94F9
:104E0000634ABC01CE01409741E357E220E030E025
:104E10000E94F717DF91CF9108950F93013051F45D
:104E20008091B8269091B9269093BF268093BE2694
:104E30000E94EA260F9108958091BE269091BF2688
:104E40002091BC263091BD26880F991F281739075D
:104E500008F4C9019093BF268093BE260E94EA26DB
:104E60000895EF92FF92CF93DF930E94AC310E949E
:104E70000931E82EE7017E01F92EE7011982188237
:104E80000E94732626C028813981F901EE0FFF1F89
:104E9000EE0FFF1FEC0FFD1FDC0112964D915C9190
:104EA0001397538342832F5F3F4FF901EE0FFF1F8C
:104EB000EE0FFF1FEC0FFD1F14964D915C9115979F
:104EC00051834083398328830E94D52D282F392F81
:104ED000C901009721F0FC0120852223A1F68881D9
:104EE0009981880F991F880F991F02960E9404319B
:104EF00088819981009721F08DE896E20E94172819
:104F0000DF91CF91FF90EF900895EF92FF920F9372
:104F10001F93CF93DF93FC018B017A01E9018DE8A8
:104F200096E2BF0143EF5DE00E94F9271093B92696
:104F30000093B826F092BB26E092BA26D093BD2605
:104F4000C093BC268DE097E20E946E26DF91CF9140
:104F50001F910F91FF90EF900895CF93DF93C8EAD0
:104F6000D6E2CE010E947E18CE0140970E947E18A4
:104F7000CE014B970E941428DF91CF910895809124
:104F8000BE269091BF260895DC011996ED91FC9103
:104F90001A970280F381E02D309709F00995089562
:104FA000EF92FF920F931F93DF93CF9300D0CDB773
:104FB000DEB78C0188E10E945032BC017E0108946A
:104FC000E11CF11CC7010E941025D8011996ED9132
:104FD000FC911A970190F081E02DC801B701099565
:104FE0000F900F90CF91DF911F910F91FF90EF9055
:104FF0000895EF92FF920F931F93CF93DF93EC01ED
:105000008B017A0147EF5DE00E942528FA86E98648
:10501000C8016BEF7DE00E94C128DF91CF911F9105
:105020000F91FF90EF9008950E943E280895CF932E
:10503000DF93EC0188E164EC7FE20E944632CE010E
:105040000E944128DF91CF910895EF92FF920F9334
:105050001F93CF93DF93EC018B017A010E949A2872
:10506000F886EF82C8016FEF7DE00E94C128DF91D2
:10507000CF911F910F91FF90EF9008950E94A32868
:1050800008950E94BA250895FC01A781B0852D914D
:105090003C91F90109950895DC011796ED91FC9179
:1050A00018970280F381E02D309709F00995089553
:1050B0000E9495280895EF92FF92CF93DF93E0919D
:1050C000010EF091020E0995EC01009729F06A811A
:1050D0007B8181E00E943232CE01DF91CF91FF903F
:1050E000EF9008950F931F93CF93DF938C01E0917E
:1050F000030EF091040E0995EC01F80162817381B1
:1051000081E00E94323221E030E0209711F420E06B
:1051100030E0C901DF91CF911F910F910895E09187
:10512000050EF091060E0995089582EC96E20E9414
:105130000B2D0895FC017383628382EC96E2BF011C
:105140000E94962D0895BC0182EC96E20E945D2D8E
:105150000895CF93DF93EC0182EC96E20E940F2D2D
:1051600008C0828193818C179D0739F0CF010E947E
:10517000D52DE82FF92F3097A1F7CF01DF91CF91EF
:1051800008950F931F93CF93DF938B010E94A9285B
:10519000EC01009731F01D830C83C8010E948F2819
:1051A0008E83DF91CF911F910F910895FC0120E034
:1051B00030E004C08181280F311D32968081882320
:1051C000C9F7C9010895FC01818190E0308120E098
:1051D000822B932B02C0880F991F6A95E2F7892FC3
:1051E0009927FA01E95FF14F208130E08223932370
:1051F00028E030E0241B350B02C0969587952A9550
:10520000E2F708956F927F928F929F92AF92BF9232
:10521000CF92DF92EF92FF920F931F93CF93DF9382
:105220006C017B015A0189012830310544F4CB011E
:10523000BA01A9010E94E328F601808341C0390127
:1052400033E0759467943A95E1F74115510521F0E3
:105250004C01C0E0D0E016C0DB01FC01C0E0D0E0B2
:105260008D9181932196C615D705D4F3A801477077
:1052700050704115510521F1C7018C0F9D1F60E051
:1052800070E019C0C7018C0F9D1FB50148E050E0C8
:105290000E94E328F40181934F012196C615D7059A
:1052A0008CF3A801477050704115510549F0C701B2
:1052B0008C0F9D1FB5010E94E328CC0DDD1D888356
:1052C000DF91CF911F910F91FF90EF90DF90CF90E2
:1052D000BF90AF909F908F907F906F9008954F9266
:1052E0005F926F927F928F929F92AF92BF92CF9276
:1052F000DF92EF92FF920F931F93DF93CF9300D033
:1053000000D0CDB7DEB70E940931E82E092F82E028
:1053100090E00E94E530009709F464C0EE2DF02F74
:10532000918180E02081820F911D0E94A9287C013B
:10533000009709F459C00E9409313C01F7014681E8
:10534000242F30E02770307081E090E02115310586
:1053500011F480E090E0469546954695840F911DA6
:105360000E94E5300097F1F1F70104811581CC240A
:10537000DD2453E0452E512C4C0E5D1E4E01089449
:10538000811C911C2AC0F801A180BB24B60143E016
:10539000759567954A95E1F7660D771DA6014770EB
:1053A0005070883150F0C40195010E940229F80123
:1053B0008081B4010E9446320CC01C821B82C20153
:1053C00095010E9402296B817C81F80180810E94F5
:1053D0003232CA0CDB1C0E5F1F4FF801808188231C
:1053E00091F602C0EE24FF24C7010F900F900F909A
:1053F0000F90CF91DF911F910F91FF90EF90DF9071
:10540000CF90BF90AF909F908F907F906F905F9064
:105410004F900895FC0150E080E190E0861B970BCF
:10542000821B930B02C0440F551F8A95E2F78081BF
:10543000852B80838181842B818308956F927F9255
:105440008F929F92AF92BF92CF92DF92EF92FF9294
:105450000F931F93CF93DF938C015B016A01790156
:105460002830310524F4C801FA01408156C03901C1
:1054700063E0759467946A95E1F7A114B10421F093
:105480004A01C0E0D0E021C0DA01F80180E090E0FC
:105490002D912193019686159705D4F397012770D6
:1054A000307021153105D9F1F601E80FF91F40815F
:1054B00050E068E070E0621B730B02C055954795A1
:1054C0006A95E2F7800F911F26C0F40141914F01C8
:1054D000C8018C0F9D1FB50128E030E00E940A2A08
:1054E0002196C615D7058CF39701277030702115CA
:1054F0003105A9F0F601EC0FFD1F408150E0C50118
:105500000896821B930B02C0559547958A95E2F742
:10551000C8018C0F9D1F60E070E00E940A2ADF9195
:10552000CF911F910F91FF90EF90DF90CF90BF90A0
:10553000AF909F908F907F906F9008954F925F9261
:105540006F927F928F929F92AF92BF92CF92DF9293
:10555000EF92FF920F931F93DF93CF9300D0CDB7BD
:10556000DEB78C01DC0116964C911697842F90E0E3
:105570008770907021E030E0009711F420E030E077
:105580004695469546957901E40EF11CC7010296B1
:105590000E947131009709F453C00E941131FC013F
:1055A000D80112968C911297808313968C918183E7
:1055B0000E941131F2E06F2E712C680E791EC3012A
:1055C00060E070E0A7010E94574BF801C480D580CD
:1055D00000E010E02E010894411C511C2AC0D601A5
:1055E00011968C90119799247801E3E0F594E79453
:1055F000EA95E1F7E60CF71C77E0A72EB12CA02284
:10560000B122883130F00E945032AC01C701B5019F
:1056100007C00E943D329A838983C701B501A20168
:1056200094010E941E2A080D191DE2E0F0E0CE0E42
:10563000DF1ED6018C91882391F621E030E002C074
:1056400020E030E0C9010F900F90CF91DF911F91C2
:105650000F91FF90EF90DF90CF90BF90AF909F9011
:105660008F907F906F905F904F900895E091350EEE
:10567000F091360E09950895E091F10DF091F20D3B
:1056800009950895E0913B0EF0913C0E099508951F
:10569000E0913D0EF0913E0E0995089580E090E076
:1056A00008950895E091D10DF091D20D09950895D6
:1056B000009731F0E091D10DF091D20D0995089548
:1056C000E091D30DF091D40D0995089580E090E01C
:1056D00008950F931F93DF93CF93CDB7DEB7E09775
:1056E0000FB6F894DEBF0FBECDBF0E945B318C01B8
:1056F0000E940931602FAE014F5F5F4F0E94F13869
:10570000882309F445C088A99801281B3109C901DB
:105710000E94E5300097E1F12E81222371F18A8504
:105720009B853BEA8D3C930721F03FEF8F3F93072A
:1057300079F5223041F088E090E007C0019722918E
:105740002F3F41F00BC082E090E0FE01E80FF91F0F
:105750003C96F4CF181619068CF30FC089E1BE01F0
:10576000645F7F4F0E94463289E10E94503264ECB0
:105770007FE20E941925009759F088E1BE016A5E18
:105780007F4F0E944632E0911E0EF0911F0E099548
:10579000E0960FB6F894DEBF0FBECDBFCF91DF917C
:1057A0001F910F910895AF92BF92CF92DF92EF9227
:1057B000FF920F931F93DF93CF93CDB7DEB7E097A0
:1057C0000FB6F894DEBF0FBECDBF6C018B01FE019A
:1057D000319680E3DF011D928A95E9F781E08983A4
:1057E0008CE00E943D328C831D821F828091C426F2
:1057F00089878F5F8093C42683E0E82EE8868DEC4E
:105800009BEA9B878A8789E10E94503266EE7DE0A1
:105810000E941925009731F082E08E838FEF8C87EC
:105820008D8709C089E10E945032BC01CE010C96DF
:105830000E941025EE828DEC9BEA9D8B8C8BCE0115
:10584000469664EC7FE20E9410250E9409319FA7D2
:105850008EA70E945B3188AB7E010894E11CF11C8D
:10586000C7010E94E837A82E90E00E94713100978E
:1058700041F10E941131BC01C7014A2D0E94063836
:10588000A090C70DB090C80D0E9411317C010E94FC
:105890006531BC01C701F5010995C114D10489F036
:1058A000009721F08130910561F404C0C80160E0E7
:1058B00070E003C0C80164E070E041E050E0F60130
:1058C0000995E0960FB6F894DEBF0FBECDBFCF911D
:1058D000DF911F910F91FF90EF90DF90CF90BF90DD
:1058E000AF9008950E947D308093C426E091D10D41
:1058F000F091D20D099508950F931F93CF93DF93E5
:105900008C01EB014115510549F0FA018281938127
:105910000E94E132C801BE010E94D32BDF91CF91DA
:105920001F910F910895EF92FF92CF93DF93E82E8E
:10593000E7017E01F92EE70104C060E070E00E94FB
:10594000C915899199910097C1F7DF91CF91FF9087
:10595000EF900895EF92FF92CF93DF93E82EE70147
:105960007E01F92EE70102C00E940E1589919991DE
:105970000097D1F7DF91CF91FF90EF900895CF93EB
:10598000DF93EC017B836A830E94601B9983888389
:10599000DF91CF910895FC01808191812281338133
:1059A000820F931F918380830895CF93DF93EC013F
:1059B0000E94601B99838883DF91CF910895CF93D4
:1059C000DF93EC010E94601B28813981821B930BBD
:1059D000019621E030E04A815B814817590710F0B9
:1059E00020E030E0C901DF91CF910895EF92FF925E
:1059F000CF93DF93FC01C281D38180819181C80F55
:105A0000D91F0E94601BC81BD90BCE01DF91CF911B
:105A1000FF90EF900895FC01118210820895FC011F
:105A2000808191810895FB0120813181FC013183C6
:105A300020830895FC01208131812115310511F465
:105A400007C09C01F901808191810097D1F702C0C4
:105A500020E030E0C9010895CF93DF93DC012D9160
:105A60003C91119721153105A9F0F90180819181AF
:105A7000009729F411961C921E920EC0F901208104
:105A80003181D9018D919C9111970097B9F71182BD
:105A9000108202C020E030E0C901DF91CF9108956B
:105AA000DC01ED91FC911197309729F08081918173
:105AB00011969C938E93CF010895CF93DF93FC01B1
:105AC000A081B1811097D9F0C0E0D0E016C0A61730
:105AD000B70771F48D919C911197209719F49183D8
