:100000000C94B2010C94D1010C94D1010C94D10147
:100010000C94D1010C94D1010C94D1010C94D10118
:100020000C94D1010C94D1010C94D1010C94D10108
:100030000C94D1010C9484380C94D1010C94D1010E
:100040000C94D1010C94D1010C94D1010C94D101E8
:100050000C94D1010C940B1D0C94D1010C94D10182
:100060000C94D1010C94801D0C94D1010C94D101FD
:100070000C94D1010C94D1010C94D1010C94D101B8
:100080000C9421370C94D1010C94D1010C94D10122
:100090000C94AF1D0C94D1010C94D1010C94D1019E
:1000A0000C94D1010C94D1010C94D1010C94D10188
:1000B0000C94D1010C94D1010C94D1010C94D10178
:1000C0000C94D1010C94D1010C94D1010C94D10168
:1000D0000C94D1010C94D1010C94D1010C94D10158
:1000E0000C94D1010C94C7250C94D1250C94BD25FA
:1000F0000C9477250C94FD250C94F3250C94E7259E
:100100000C94DB250C94D1010C94D1010C94D101F9
:100110000C94D1010C94D1010C94D1010C94D10117
:10012000257325730A004E657665722D75736564B7
:1001300020737461636B203E2025642062797465AE
:10014000730A004F6E6C696E650A00257320257373
:100150002C206368616E6E656C202575202C2063F1
:100160006865636B207261746520257520487A206C
:10017000747820706F7765722025750A000A002553
:10018000783A004D414320616464726573732000C6
:1001900052616E646F6D2045554936342061646448
:1001A000726573732067656E6572617465640A00B9
:1001B0000A2A2A2A2A2A2A2A426F6F74696E67201D
:1001C00025732A2A2A2A2A2A2A0A00020000FFFE68
:1001D00000000141544D454741313238726661316A
:1001E000006C6F63616C686F737400454550524FCB
:1001F0004D20697320636F72727570742C20726564
:1002000077726974696E67207769746820646566BF
:1002100061756C74732E0A00452025642E256420B8
:10022000636C6F636B20256C752063707520256C83
:1002300075206C706D20256C752069727120256C9D
:100240007520676C656420256C7520796C65642069
:10025000256C7520726C656420256C75207478207F
:10026000256C75206C697374656E20256C75207320
:10027000656E736F727320256C752073657269618A
:100280006C20256C750A00532025642E256420639C
:100290006C6F636B20256C7520747820256C75203D
:1002A000727820256C752072747820256C75207208
:1002B000727820256C75207265786D697420256CC4
:1002C000752061636B747820256C75206E6F616397
:1002D0006B747820256C752061636B727820256CB7
:1002E000752074696D65646F757420256C75206266
:1002F000616461636B727820256C7520746F6F6C1C
:100300006F6E6720256C7520746F6F73686F7274E1
:1003100020256C752062616473796E636820256C9A
:10032000752062616463726320256C7520636F6E53
:1003300074656E74696F6E64726F7020256C7520C1
:1003400073656E64696E6764726F7020256C7520CA
:100350006C6C747820256C75206C6C727820256C20
:10036000750A000011241FBECFEFD1E4DEBFCDBF60
:100370001FE0A0E0B2E0E4E6F1EA00E00BBF02C05B
:1003800007900D92AA3DB107D9F71DE2AAEDBFE093
:1003900001C01D92A13EB107E1F70E94EE1A0C9434
:1003A000B0500C9400007F928F929F92AF92BF92B8
:1003B000CF92DF92EF92FF920F931F93CF93DF9331
:1003C0006C01DC018D919C911197009729F084328A
:1003D000910509F05EC10DC08CE991E160E071E02A
:1003E0000E94D71784E290E0F6019183808381E038
:1003F00054C18091A6119091A711A091A811B0911C
:10040000A9110196A11DB11D8093A6119093A7116A
:10041000A093A811B093A91130917402E0907502D5
:10042000009176028090770290907802A0907902F5
:10043000B0907A02F0907B0220917C0240917D0284
:10044000F0917E0270907F02709180025091810243
:100450006091820210918302230FE1E0231708F0DC
:10046000E0E04E0D31E04E1508F030E0EE2EE40EE7
:10047000E1E0E41608F0E0E03E2BF00F41E0F01779
:1004800008F040E0032F0F0F31E00F1708F030E0C5
:10049000432BE82DE70D31E0E81508F030E0F42FAC
:1004A000FE0F41E0FE1708F040E0342B790D41E0EB
:1004B000791508F040E0E32FE70F31E0E71708F087
:1004C00030E0432B5A0D31E05A1508F030E0450F6B
:1004D00071E0451708F070E0372B6B0D51E06B159C
:1004E00008F050E0732F760F31E0761708F030E017
:1004F000532B1F0D510F20938402E092850200932D
:100500008602F0938702E0938802409389027093F9
:100510008A0250938B02CAEDDFE02DB73EB7285018
:1005200030400FB6F8943EBF0FBE2DBF4DB75EB73B
:100530004F5F5F4FEDB7FEB7D283C18320E032E05B
:10054000FA013383228384839583A683B7830E9431
:10055000504D7C019093A5118093A41100D000D040
:10056000EDB7FEB731968C0F9D1FADB7BEB7129693
:100570009C938E9311978AE192E09383828304E7A0
:1005800012E080917402848380917502858380914A
:1005900076028683809177028783809178028087B4
:1005A00080917902818780917A02828780917B0293
:1005B00083870E94504DE80EF91EF092A511E0923B
:1005C000A411EDB7FEB738960FB6F894FEBF0FBE74
:1005D000EDBF8DE492E092838183D483C3830E9434
:1005E000E04CF801389680917C02809374028091EF
:1005F0007D02D80111968C93119780917E021296FC
:100600008C93129780917F0213968C93139780910D
:10061000800214968C9314978091810215968C9386
:1006200015978091820216968C931697809183027B
:1006300017968C9317978091840218968C938091CB
:1006400085028183809186028283809187028383E1
:1006500080918802848380918902858380918A02B7
:10066000868380918B0287830F900F900F900F905D
:100670008091A4119091A5110E9422138AEA9DE015
:1006800069E8AE010E94A0168CE991E160E075E096
:10069000A7CEF6011182108283E0DF91CF911F91E6
:1006A0000F91FF90EF90DF90CF90BF90AF909F9011
:1006B0008F907F900895FC012FEF3FEF12C0832FA2
:1006C0009927A191B0E0A227B327B070AA0FBB1F52
:1006D000A457BD4F2D913C91119728273927615080
:1006E00070406115710559F720953095C90108953D
:1006F000282F392FD901E3E9F4E08D91819384E02B
:10070000EA39F807D1F70895009749F0E3E9F4E0F2
:10071000DC0181918D9384E0EA39F807D1F783E910
:1007200094E00895009749F0ECE8F4E0DC01819151
:100730008D9384E0E339F807D1F78CE894E00895CD
:10074000EF92FF920F931F93CF93DF9379012BE1E9
:10075000E21621E0F20690F50115110579F1D801B4
:10076000262F372FF90127E001900D922150E1F754
:10077000D8011796FC0187E001900D928150E1F7B6
:1007800083E0F801868780EF87879801205F3F4FDD
:10079000C901BA01A7010E944D4CE7016096C8014A
:1007A000BE010E945B03C00FD11F9883898382E141
:1007B00090E0E80EF91E00E010E003C0EE24FF24F4
:1007C0008701B701C801DF91CF911F910F91FF9071
:1007D000EF9008950F931F93CF93DF93EB018A015E
:1007E000BA0147E050E00E94404C882339F08CE881
:1007F00094E0B80147E050E00E94404C209741F05F
:10080000202F312FF90197E0019009929150E1F7E3
:10081000DF91CF911F910F910895AF92BF92CF9228
:10082000DF92EF92FF920F931F93CF93DF936A01B2
:10083000E90198016115710539F0DB01FE0147E01E
:1008400001900D924150E1F7009741F0DC01FE016B
:10085000379687E001900D928150E1F789010251AE
:1008600010407E01E00EF11EF7018089B82EAA2407
:10087000B90162507040CE010E945B03F7012189EB
:1008800030E02A293B292817390771F4C114D10413
:1008900069F06096C601BE01A8010E944D4CF601A8
:1008A000E00FF11F108202C000E010E0C801DF91EC
:1008B000CF911F910F91FF90EF90DF90CF90BF905D
:1008C000AF900895AF92BF92DF92EF92FF920F9395
:1008D0001F93CF93DF935B01E82FF92F20E030E0E7
:1008E000A90160E070E04FC079018A01A4E016958B
:1008F0000795F794E794AA95D1F7D1908D2D90E0C4
:10090000A0E0B0E082279327A427B5278F709070CE
:10091000A070B070880F991F880F991F86569B4F43
:10092000EC0188819981AA81BB818E259F25A02712
:10093000B1277C018D0134E016950795F794E79473
:100940003A95D1F7D2942FE0D2222D2D30E040E01D
:1009500050E0282739274A275B272F7030704070D6
:100960005070220F331F220F331F26563B4FD901E1
:100970002D913D914D915C9113972E253F25402758
:1009800051276F5F7F4F6A157B0508F4ADCFC90112
:10099000DF91CF911F910F91FF90EF90DF90BF906B
:1009A000AF900895282F392FD901E0EEF4E08D9112
:1009B000819384E0E63EF807D1F70895009749F067
:1009C000E0EEF4E0DC0181918D9384E0E63EF807EF
:1009D000D1F780EE94E00895009749F0EAEDF4E055
:1009E000DC0181918D9384E0E03EF807D1F78AED38
:1009F00094E00895EF92FF920F931F93CF93DF93AC
:100A00007901E8012BE1E21621E0F20688F5209752
:100A100079F1D801262F372FF90126E001900D92A8
:100A20002150E1F7DE011696FC0186E001900D925F
:100A30008150E1F787010E5E1F4F1C870D879E01D5
:100A4000225F3F4FC901BA01A7010E944D4C8EE0C1
:100A500090E0E80EF91ECE01B7010E946204CE0DAF
:100A6000DF1D188219829A838B8320E030E003C057
:100A700000E010E09801B801C901DF91CF911F910A
:100A80000F91FF90EF9008950F931F93CF93DF93F3
:100A9000EB018A01BA0146E050E00E94404C8823F5
:100AA00039F08AED94E0B80146E050E00E94404CF5
:100AB000209741F0202F312FF90196E00190099203
:100AC0009150E1F7DF91CF911F910F9108956F92AF
:100AD0007F928F929F92AF92BF92CF92DF92EF92CE
:100AE000FF920F931F93CF93DF933A01E9016801BF
:100AF0006115710551F0A90126E0DA010D90AD01F3
:100B0000DB010D92BD012150C1F7009761F0AE01EC
:100B10004A5F5F4F26E0DA010D90AD01DC010D92D6
:100B2000CD012150C1F78C85F82FE0E08D8590E054
:100B3000E82BF92BCE16DF0609F04CC086010251D6
:100B400010407E01E00EF11EF701868590E0A0E0E6
:100B5000B0E0BA2FA92F982F8827278530E040E0F2
:100B600050E0822B932BA42BB52BBA2FA92F982FB3
:100B70008827208930E040E050E0822B932BA42B83
:100B8000B52B8824982EA92EBA2EB6016450704039
:100B9000CE010E946204D70151962C9130E040E0D2
:100BA00050E0282939294A295B29A0E0B0E028171C
:100BB00039074A075B0771F46114710469F02E96D6
:100BC000C301BE01A8010E944D4CF301E00FF11FCB
:100BD000108202C000E010E0C801DF91CF911F91A8
:100BE0000F91FF90EF90DF90CF90BF90AF909F90CC
:100BF0008F907F906F900895E6EEF7E0E80FF11D7B
:100C000080810895EF92FF92CF93DF93E62FF72F25
:100C1000E82EE7017E01F92EE70180E090E016C0A2
:100C20009E01A991B0E0AA0FBB1FAA51BA4F11961D
:100C30006C916083D9012C91A22FB0E0AA0FBB1F49
:100C4000AA51BA4F2C9121830196329684179507A9
:100C500038F3440F551FCA01DF91CF91FF90EF90F9
:100C60000895CF93DF93E82FF92F862F972FEC016C
:100C700020E030E011C0A081B0E0AA51BB4F8C91C0
:100C80008295807FA181B0E0AA51BB4F9C91892BB6
:100C900089932F5F3F4F3296C901880F991F8417A0
:100CA000950748F3C901DF91CF9108959093C91238
:100CB0008093C8121092C21280E008958093C212ED
:100CC00008958091700B9091710B089580916E0B37
:100CD00090916F0B08950E94304C9C01B9018827B8
:100CE00077FD8095982F0E94C64820E03EEF4FEF99
:100CF00056E40E94E8479B01AC010E94904620E028
:100D000030E040E85FE30E9490460E941A45862F3B
:100D10000895AF92BF92CF92DF92EF92FF920F931E
:100D20001F93CF93DF937C016B018A01E90121E0DE
:100D3000433C5207B0F000D000D086EE98E0ADB74B
:100D4000BEB712969C938E93119714965C934E9314
:100D500013970E94E04C0F900F900F900F908FEF21
:100D600045C100D080E099E0EDB7FEB79283818362
:100D70000E94E04C0F900F90C7010E94FF1081E08D
:100D8000C114D10409F080E0B82EBB0C209741F0CB
:100D900081E090E02881222329F080E090E002C0E9
:100DA00081E090E0B82AB1FE06C08FE099E00E9491
:100DB000194D8EEF1BC1B0FE06C084E299E00E947F
:100DC000194DC0E6D9E0FB2DF33079F400D08CE664
:100DD00099E0ADB7BEB712969C938E9311970E947F
:100DE000E04C0F900F908DEF01C11092BD12109248
:100DF000BC1286E090E09093BB118093BA118AEA0E
:100E000091E10E94720DA0EBB1E18E2D9F2DFC01AE
:100E100086E001900D928150E1F785E490E0909397
:100E2000B9118093B8110E94304CFC01BF01882792
:100E300077FD8095982F0E94C64820E03EEF4FEF47
:100E400056E40E94E84720E03FEF4FE757E40E9456
:100E5000EE460E941A457093B7116093B61165343F
:100E6000710509F361157105F1F27093710B6093CF
:100E7000700B00D000D0EDB7FEB7319622E839E014
:100E8000ADB7BEB712963C932E93119773836283CE
:100E90000E94E04CE090BC12F090BD12F701E655C4
:100EA000FE4E128A0894E11CF11CF701E655FE4E35
:100EB00086E0828B0894E11CF11CF092BD12E09256
:100EC000BC120F900F900F900F90CE0160E170E078
:100ED0000E946B4CAC01970124543E4EC901BE01E7
:100EE0000E944D4CCE0160E170E00E946B4C20915D
:100EF000BC123091BD12280F391F3093BD122093C0
:100F0000BC1200D000D086E999E0ADB7BEB712960A
:100F10009C938E9311971496DC93CE9313970E9413
:100F2000E04CE091BC12F091BD12E454FE4EAEEAEA
:100F3000B9E08AE00D9001928150E1F72091BC1256
:100F40003091BD12265F3F4F3093BD122093BC12EB
:100F50001092C01224543E4E0F900F900F900F909D
:100F6000C901B601A8010E944D4C8091BC1290911C
:100F7000BD12800F911F9093BD128093BC121092EE
:100F8000C7121092C6121092BF121092BE1281E0C8
:100F900090E060E870E00E948E0C8FEF9FEF9093DE
:100FA000C4128093C3121092C7121092C61281E02D
:100FB0008093C1121092C512C091C812D091C9126B
:100FC00080E090E00E94720D6091B6117091B711AF
:100FD0002091B8113091B911E090BC12F090BD127F
:100FE00040EB51E10CEB11E1FE010995DF91CF914E
:100FF0001F910F91FF90EF90DF90CF90BF90AF9037
:1010000008956F927F928F929F92AF92BF92CF92EC
:10101000DF92EF92FF920F931F93CF93DF93F82EFF
:10102000962ED72E5A013901E80100D080E099E0D0
:10103000ADB7BEB712969C938E9311970E94E04C69
:101040000F900F90892D9D2D0E94FF1011E0A1148B
:10105000B10409F010E0110F209751F0EE2041F09B
:1010600081E090E02881222329F080E090E002C016
:1010700081E090E0182B11FF05C089EB99E00E94F8
:10108000194D43C110FF08C08FEC99E00E94194D23
:10109000C0E6D9E08BE0E82E133009F436C1BF2D4D
:1010A000B13029F482E09AE00E94194D21C0EF2D61
:1010B000E23009F02CC181E08093C212B092CD12CF
:1010C000A092CC12A114B10479F400D08BE29AE082
:1010D000ADB7BEB712969C938E9311970E94E04CC9
:1010E0000F900F9083EF14C17092CB126092CA12CE
:1010F0001092BD121092BC12F092BA111092BB1154
:101100008AEA91E10E94720DA0EBB1E1892D9D2D3B
:10111000FC0186E001900D928150E1F785E490E0BA
:101120009093B9118093B8110E94304CFC01BF011B
:10113000882777FD8095982F0E94C64820E03EEFD3
:101140004FEF56E40E94E84720E03FEF4FE757E4B7
:101150000E94EE460E941A457093B7116093B61133
:101160006534710509F361157105F1F27093710B26
:101170006093700B00D000D0EDB7FEB7319622E837
:1011800039E0ADB7BEB712963C932E931197738397
:1011900062830E94E04C2091BC123091BD12F90193
:1011A000E655FE4E128A2F5F3F4FF901E655FE4E7F
:1011B000F28A2F5F3F4F3093BD122093BC12AE2CAA
:1011C000BB2424543E4E0F900F900F900F90C901F6
:1011D000BE014E2D50E00E944D4C8091BC1290916A
:1011E000BD128A0D9B1D9093BD128093BC1200D03E
:1011F00000D086E999E0ADB7BEB712969C938E9366
:1012000011971496DC93CE9313970E94E04CE091D3
:10121000BC12F091BD12E454FE4EAEEAB9E08AE091
:101220000D9001928150E1F72091BC123091BD12D6
:10123000C9010A969093BD128093BC120F900F9033
:101240000F900F90CC20B9F0DC01A454BE4EE7E41F
:10125000FAE087E001900D928150E1F78091BC1295
:101260009091BD1207969093BD128093BC1281E0BD
:101270008093C0120CC086559E4EFC01128A255FD9
:101280003F4F3093BD122093BC121092C0121092A7
:10129000C7121092C6121092BF121092BE128F2D5A
:1012A0008150823040F40E946B0690E0019660E825
:1012B00070E00E948E0C8FEF9FEF9093C41280938A
:1012C000C3121092C7121092C61281E08093C1120D
:1012D0001092C512C091C812D091C91280E090E05E
:1012E0000E94720D6091B6117091B7112091B811E2
:1012F0003091B911E090BC12F090BD1240EB51E179
:101300000CEB11E1FE01099503C08FEF01C086EFE0
:10131000DF91CF911F910F91FF90EF90DF90CF90D1
:10132000BF90AF909F908F907F906F900895CF92D5
:10133000DF92EF92FF920F931F93CF93DF938C0175
:10134000E62E1092BD121092BC1223E030E03093D2
:10135000BB112093BA118AEA91E10E94720DA0EBB1
:10136000B1E1802F912FFC0186E001900D92815018
:10137000E1F780916E0B90916F0B9093B911809370
:10138000B8118091700B9091710B9093B71180936D
:10139000B6114091BC125091BD12FA01E655FE4EB5
:1013A000128A4F5F5F4FFA01E655FE4E8091BA11E7
:1013B000828B4F5F5F4FFA01E655FE4E128A4F5FF8
:1013C0005F4FFA01E655FE4EE28A4F5F5F4F509342
:1013D000BD124093BC128E2D90E00197982F882764
:1013E000990FC091CA12D091CB12C81BD90B22E021
:1013F000C030D20710F0C0E0D2E044545E4E2091DD
:10140000CC123091CD12280F391FCA01B901AE019B
:101410000E944D4C8091BC129091BD128C0F9D1F6B
:101420009093BD128093BC12E092BE121092BF1234
:101430000E946B0690E060E870E00E948E0C00D085
:1014400000D08FE49AE0EDB7FEB79283818380915C
:10145000BC129091BD12948383830E94E04CC09192
:10146000C812D091C9120F900F900F900F9080E08A
:1014700090E00E94720D6091B6117091B7112091A9
:10148000B8113091B911E090BC12F090BD1240EB50
:1014900051E10CEB11E1FE010995DF91CF911F9114
:1014A0000F91FF90EF90DF90CF900895CF92DF9251
:1014B000EF92FF920F931F93DF93CF9300D0CDB79E
:1014C000DEB7182F6A0179011092BD121092BC127A
:1014D00085E090E09093BB118093BA118AEA91E184
:1014E00069837A830E94720DA0EBB1E169817A81F0
:1014F000862F972FFC0186E001900D928150E1F735
:10150000D092B911C092B8118091700B9091710B6B
:101510009093B7118093B6112091BC123091BD12F7
:10152000F901E655FE4E128A2F5F3F4FF901E6554D
:10153000FE4E8091BA11828B2F5F3F4FF901E65525
:10154000FE4E128A2F5F3F4FF901E655FE4E128B79
:101550002F5F3F4F3093BD122093BC12E114F10472
:10156000A1F0C02EDD2424543E4EC901B701402F06
:1015700050E00E944D4C8091BC129091BD128C0D98
:101580009D1D9093BD128093BC12C090C812D09044
:10159000C91280E090E00E94720D6091B6117091C6
:1015A000B7112091B8113091B911E090BC12F090B0
:1015B000BD1240EB51E10CEB11E1F60109950F90E2
:1015C0000F90CF91DF911F910F91FF90EF90DF90DF
:1015D000CF900895CF92DF92EF92FF920F931F93D7
:1015E000DF93CF9300D000D0CDB7DEB78C01198246
:1015F00084E08A831B826C8300D000D084E69AE06A
:10160000EDB7FEB79283818384E090E09483838377
:101610000E94E04CC090C812D090C9120F900F9059
:101620000F900F9080E090E00E94720D6091700B1F
:101630007091710B20916E0B30916F0BA8018E0190
:101640000F5F1F4FE4E0EE2EF12CF60109950F908D
:101650000F900F900F90CF91DF911F910F91FF90FE
:10166000EF90DF90CF900895AF92BF92CF92DF922C
:10167000EF92FF920F931F93CF93DF935C016B0167
:10168000F801908181814091C212413009F0A3C0DC
:10169000392F20E090E0822B932B8430910509F0C4
:1016A00049C00E94AC0C882321F088E79AE00E9490
:1016B000194DF801E0E0EF01F801838190E0C82BBB
:1016C000D92BD093C412C093C31200D000D08DE8A0
:1016D0009AE0EDB7FEB792838183D483C3830E94DF
:1016E000E04CD0926F0BC0926E0B1092C5120F900F
:1016F0000F900F900F906091C3126F5FC5010E9411
:101700009709882309F468C000D000D088EA9AE0DD
:10171000EDB7FEB7928381838091C3129091C4127A
:101720000196948383830E94E04C0F900F900F905A
:101730000F9051C08530910509F04DC0F8018281AC
:10174000F82EEE24838190E0E82AF92A0E94AC0C5E
:10175000E114F10441F500D000D084EC9AE0EDB73B
:10176000FEB7928381830C5F1F4F148303830E9413
:10177000E04C0F900F900F900F908FED9AE0B80112
:1017800045E150E00E945D4C0097E9F48091C11260
:10179000882309F58091BE129091BF129093C412D4
:1017A0008093C31210C000D000D085EF9AE0EDB74F
:1017B000FEB792838183F482E3820E94E04C0F9013
:1017C0000F900F900F901092C2128091C112882337
:1017D00011F080EF01C080E0DF91CF911F910F9158
:1017E000FF90EF90DF90CF90BF90AF900895EF9271
:1017F000FF920F931F93CF93DF938091BA11909133
:10180000BB118630910529F48DE09BE00E94194DB3
:1018100077C08091C212813009F072C08FE19BE0E5
:101820000E94194D8091C3129091C4122091BE1252
:101830003091BF128217930740F02091BA11309176
:10184000BB112230310509F05BC04091C5124F5FDA
:101850004093C51200D000D000D0EDB7FEB731964E
:1018600022E33BE0ADB7BEB712963C932E9311979F
:1018700093838283448315820E94E04C8DB79EB788
:1018800006960FB6F8949EBF0FBE8DBF8091C5120D
:101890008A30A0F01092C2121092C7121092C61293
:1018A0001092C4121092C3128AE59BE00E94194D57
:1018B0008091C112882321F18EEE23C00E946B0615
:1018C00090E060E870E00E948E0CC091C812D09148
:1018D000C91280E090E00E94720D6091B611709183
:1018E000B7112091B8113091B911E090BC12F0906D
:1018F000BD1240EB51E10CEB11E1FE01099501C075
:1019000080E0DF91CF911F910F91FF90EF900895AC
:1019100090932C2580932B2580E008959C01CB018A
:101920009695982F88279795879568EE73E00E9483
:10193000764B3695322F222737952795620F731FE6
:1019400040912B2550912C258EEC92E120E030E047
:101950000E94DD1880E008958EEC92E10E946419E7
:1019600080E008952F923F925F926F927F928F92C4
:101970009F92AF92BF92CF92DF92EF92FF920F931E
:101980001F93CF93DF93FC01DB018901E42EE70174
:101990007E01F52EE70188249924540120E030E0EF
:1019A000A901C80108976C01EE24FF2421C0CA01D7
:1019B000B9016F5F7F4F8F4F9F4F58806C157D052A
:1019C0008E059F0538F4352C222489813101680E5B
:1019D000711C02C0752C6624B30180E090E0860E75
:1019E000971EA81EB91E2E5F3F4F4F4F5F4F229686
:1019F0002C153D054E055F05D0F220E030E00F5E6E
:101A00001F4F2F4F3F4F8181508140E0480F511DA4
:101A100060E070E0040F151F261F371F528140E061
:101A20008381480F511D60E070E0040F151F261FD1
:101A3000371F11968C9111975C9140E0480F511D12
:101A400060E070E0040F151F261F371F12969C914F
:101A5000129780E013964C91840F911DA0E0B0E0A6
:101A6000080F191F2A1F3B1F080D191D2A1D3B1D9A
:101A700006C020703070080F191F2A1F3B1FC901B4
:101A8000AA27BB270097A105B10599F700951095E6
:101A900020953095C801DF91CF911F910F91FF9054
:101AA000EF90DF90CF90BF90AF909F908F907F90FE
:101AB0006F905F903F902F9008958091DE129091EB
:101AC000DF120895282F392FD901E5EDFBE08D9124
:101AD00081938BE0E93DF807D1F77093DF126093B3
:101AE000DE120895009749F0E5EDFBE0DC018191FD
:101AF0008D938BE0E93DF807D1F785ED9BE00895E4
:101B0000FC01009729F08FEF808381838283838398
:101B10008FEB9BE008952F923F924F925F926F92CE
:101B20007F928F929F92AF92BF92CF92DF92EF926D
:101B3000FF920F931F93DF93CF9300D0CDB7DEB703
:101B4000982E892E69837A83742E652E1901580187
:101B5000870121E00130120708F0A8C0C114D104A8
:101B600009F4A4C000D000D000D0EDB7FEB7319684
:101B700082E79BE0ADB7BEB712969C938E93119708
:101B800081E090E09383828383EC9BE09583848360
:101B90000E94E04C85E4F601808380E38183C701E5
:101BA0004C96928383831482158280E28683178207
:101BB00082E0808781E181872DB73EB72A5F3F4F62
:101BC0000FB6F8943EBF0FBE2DBF80E090E0DC0161
:101BD00060E070E0508044242181A201420F511D39
:101BE0009A0140E050E0820F931FA41FB51F6E5F63
:101BF0007F4F32966A30710569F706C0A070B070E9
:101C0000820F931FA41FB51F9D014427552721153F
:101C100031054105510591F780959095A095B095B6
:101C2000F60192878387C401A92FB82D3C9680E0E6
:101C30009D9191938F5F8430D9F7C301A92FB62D61
:101C4000F601709684E09D9191938150E1F7EA81CD
:101C5000D6015496EC935497F9815596FC93559779
:101C600056963C92569757962C9257979801285F14
:101C70003F4F58963C93589759962C93892D982D01
:101C8000672D762DA5010E94B20CD6015A969C9321
:101C90005A975B968C93A601445E5F4FCA01B501CB
:101CA000A8010E944D4C045E1F4F02C000E010E0EE
:101CB000C8010F900F90CF91DF911F910F91FF906E
:101CC000EF90DF90CF90BF90AF909F908F907F90DC
:101CD0006F905F904F903F902F900895EF92FF92FA
:101CE0000F931F93CF93DF937B018A01EA016096E4
:101CF000BE0144E050E00E94404C882339F08FEB55
:101D00009BE0BE0144E050E00E94404CE114F1042D
:101D100051F0F8012089318942895389F7012083E4
:101D2000318342835383DF91CF911F910F91FF90B5
:101D3000EF9008952F923F924F925F926F927F9211
:101D40008F929F92AF92BF92CF92DF92EF92FF92CB
:101D50000F931F93DF93CF93CDB7DEB72C970FB6BA
:101D6000F894DEBF0FBECDBF9A8789871B015C87C1
:101D70004B8729011E830D838701F50149A15AA1D3
:101D80002DA13EA1EFA0F8A489A59AA5ABA4BCA45F
:101D9000C114D10429F0D8016C91607FD6016C93F5
:101DA000309721F0D8016C916F7060838114910499
:101DB00031F0F801618166956695D4016C93411507
:101DC000510529F0F80161816370DA016C93F80123
:101DD0004281742E6624438150E0642A752A4CEEB9
:101DE0005FEF640E751E2115310569F0548140E0E6
:101DF000D90111965C934E93658170E0642B752B2D
:101E000011967C936E93E114F10459F0F801268148
:101E100022952695277037E0239F202D1124D70186
:101E20002C93009791F0F801468150E04F7150706B
:101E3000542F4427DC0111965C934E93278130E0A8
:101E4000242B352B11963C932E93A114B10421F031
:101E5000F8018085D5018C93EDA5FEA5309729F07A
:101E6000D80119968C9119978083EFA5F8A930971E
:101E700079F0D8011A969C911A9780E0918380831B
:101E80001B962C911B9730E0282B392B3183208314
:101E9000E985FA85309759F0F80184859585A685FE
:101EA000B785E985FA8580839183A283B3832B85E7
:101EB0003C852115310551F0F80180899189A2896D
:101EC000B389F90180839183A283B3832114310400
:101ED00099F0D80154968C9154978A83198229815C
:101EE0003A81F1013183208355968C91559790E08A
:101EF000822B932B918380834114510491F0D8015C
:101F000056968C9156978C831B822B813C81F201D3
:101F10003183208357968C9190E0822B932B918371
:101F20008083D80158963C91589720E059968C911F
:101F3000599790E0822B932B6816790629F083E954
:101F40009BE00E94194D2AC0F801828D88871F826C
:101F50003CE1E32EF12CE00EF11EB801605F7F4FF3
:101F6000C8010C96A70193010E94B20CD8015B96A0
:101F70002C915B9730E0EF81F8852E2B3F2B2817B3
:101F8000390761F42D813E812115310551F08D8194
:101F90009E81B701A3010E944D4C03C020E030E0B8
:101FA00001C09301C9012C960FB6F894DEBF0FBE95
:101FB000CDBFCF91DF911F910F91FF90EF90DF90F8
:101FC000CF90BF90AF909F908F907F906F905F90D9
:101FD0004F903F902F9008958F929F92AF92BF9213
:101FE000CF92DF92EF92FF920F931F93ADB7BEB7E0
:101FF00050970FB6F894BEBF0FBEADBFEDB7FEB79A
:10200000319612961C921E9211971382128215829B
:102010001482178216821186108613861286158600
:10202000148617861686CC24DD24AA24BB24882493
:1020300099240E949A0EEDB7FEB770960FB6F894E9
:10204000FEBF0FBEEDBF1F910F91FF90EF90DF908D
:10205000CF90BF90AF909F908F900895FC019C010E
:10206000260F311D40E060E016C051915E3221F034
:102070005A3311F0552339F4DC01A60FB11D4C93EE
:102080006F5F40E008C0440F742F770F770F740F15
:10209000452F4053470FE217F30739F780E00895C3
:1020A000EF92FF920F931F93CF93DF937C01EB018D
:1020B000042F10E001C0182FCE01810F911D61E0A7
:1020C00070E041E050E097010E94A24C810FE82FA0
:1020D000F0E03197EC0FFD1F90819A3021F08017CE
:1020E00010F4181741F7108280E0DF91CF911F9113
:1020F0000F91FF90EF900895EF92FF920F931F932F
:10210000DF93CF930F92CDB7DEB78C017C0120E037
:10211000D7018D917D01982F90529E3548F46091A2
:10212000DD2D7091DE2D90E029830E94764C29816F
:102130002F5F263069F700D000D0EDB7FEB731969B
:1021400089ED9BE0ADB7BEB712969C938E93119725
:10215000D80116968C91828313820E94E04C0F90D6
:102160000F900F900F906091DD2D7091DE2D8AE021
:1021700090E00E94764C0F90CF91DF911F910F91CC
:10218000FF90EF900895CF93DF93DC018DB79EB75A
:102190000E970FB6F8949EBF0FBE8DBFEDB7FEB77A
:1021A00031968CED9BE0CDB7DEB79A8389838C9115
:1021B0008283138211968C911197848315821296D3
:1021C0008C9112978683178213968C911397808730
:1021D000118614968C9114978287138615968C918C
:1021E000848715860E94E04C8DB79EB70E960FB679
:1021F000F8949EBF0FBE8DBFDF91CF910895CF930E
:10220000DF93DC018DB79EB70E970FB6F8949EBF93
:102210000FBE8DBFEDB7FEB731968FEE9BE0CDB709
:10222000DEB79A8389838C918283138211968C9175
:1022300011978483158212968C9112978683178248
:1022400013968C9113978087118614968C9114970E
:102250008287138615968C91848715860E94E04CA0
:102260008DB79EB70E960FB6F8949EBF0FBE8DBF6A
:10227000DF91CF9108952F923F924F925F926F928C
:102280007F928F929F92AF92BF92CF92DF92EF9206
:10229000FF920F931F93CF93DF93382F292F6B015A
:1022A000CB0160E170E00E94764B5C01AA0CBB1C84
:1022B000A80EB91EB094A194B108B3948FE290E037
:1022C000A80EB91E3B0144E0660C771C4A95E1F765
:1022D000E32EF22EC1E0D0E092E0492E9CE0592E90
:1022E0001701260C371C82C0F70181917F0100D0B5
:1022F00000D0EDB7FEB752824182838314820E94E0
:10230000E04C0F900F900F900F90C0FD04C080E242
:1023100090E00E94124DCE018F709070009741F5B1
:102320006091DD2D7091DE2D89E090E00E94764C69
:1023300080EF882E8FEF982E8E0C9F1C01E110E00D
:1023400013C0F40181914F01982F90526091DD2DBF
:102350007091DE2D9F3520F4992787FD909502C05E
:102360008EE290E00E94764C0150104051F735C04B
:10237000CC15DD05D1F500E010E06091DD2D709108
:10238000DE2D80E290E00E94764C0F5F1F4FA0167A
:10239000B1069CF76091DD2D7091DE2D89E090E013
:1023A0000E94764C4101830115C0F40181914F01D7
:1023B000982F90526091DD2D7091DE2D9F3520F485
:1023C000992787FD909502C08EE290E00E94764C9E
:1023D0000F5F1F4F0C151D0544F36091DD2D7091AB
:1023E000DE2D8AE090E00E94764C2196CC16DD0628
:1023F0000CF07ACF6091DD2D7091DE2D8AE090E0B7
:102400000E94764CDF91CF911F910F91FF90EF903A
:10241000DF90CF90BF90AF909F908F907F906F9004
:102420005F904F903F902F900895682F80E00E941A
:10243000FE1D80E090E00895CF92DF92EF92FF9230
:102440000F931F93CF93DF93F8016701A895A09195
:10245000E312AA2309F078C0C6EFD9E1A3E8BDE0F2
:102460000AE00D9009920150E1F7E0908D0DF09097
:102470008E0D00918F0D1091900DE092001AF09248
:10248000011A0093021A1093031A8F017601E2EEEB
:10249000CE2EE8E1DE2E0E948B0DEC01009731F488
:1024A00087E09CE00E94194D8EEF51C080E090E0E3
:1024B0000E9484038C0180E090E00E949203BC01A2
:1024C000C80142EE58E19E010AEA17E10E94A0030A
:1024D0009B01AC016115710531F483E29CE00E941F
:1024E000194D8DEF34C002E515E18AEA97E1B80194
:1024F000A9010E940206EC0124E03AE1C901B801F9
:10250000AE010E944D4CFE01EC5FF54E8CE18083E4
:10251000FE01EB5FF54E108281E08093E31260963E
:10252000D0935F1CC0935E1CA8958AEA9DE069E881
:102530004AEE52E10E947D168130910539F480E423
:102540009CE00E94194D02C08FEF01C080E0DF9136
:10255000CF911F910F91FF90EF90DF90CF90089552
:1025600081E08093E2128AEA9DE068E840E050E072
:102570000E947D1608951F93182F8091E6128823DC
:10258000F1F11C3129F0812F0E94FC05882321F5EF
:102590006091DD2D7091DE2D8AE090E00E94764CF6
:1025A0001092E6128091601C9091611C9093E91248
:1025B0008093E81281E08093E0128AEA9DE069E866
:1025C0004AEE52E10E947D168130910579F580E452
:1025D0009CE00E94194D2AC02091601C3091611C22
:1025E000F901E651FD4E1083C901019668E672E0DB
:1025F0000E94624B9093611C8093601C17C0809175
:10260000E712E82FF0E0E357F24F9081191761F4D9
:102610008F5F8093E712843049F41092611C10920E
:10262000601C81E08093E6121092E71280E090E057
:102630001F910895882311F0889A01C0889881B36A
:1026400081700895F8949093E5128093E412789441
:1026500008952091E4123091E512C90108950F9375
:102660001F93CF93DF93A89580E00E941A138FE306
:102670009CE90197F1F700C00000F89406EF19E11A
:10268000C0E0D0E007C0F80161918F0181E00E94B5
:10269000FE1D219680915E1C90915F1CC817D90782
:1026A00090F38091C80085FFFCCF78948FE39CE97C
:1026B0000197F1F700C0000081E00E941A13A8956D
:1026C00080E090E0DF91CF911F910F9108958F925C
:1026D0009F92AF92BF92CF92DF92EF92FF920F93B1
:1026E0001F93CF93DF93EC014B015A016901A89529
:1026F00080E090E00E94720DB50144E050E00E943D
:10270000404C882361F080E090E00E94800DB5018C
:1027100044E050E00E94404C882309F052C00E94DF
:102720006106C816D90659F488EF9FEFE80EF91E26
:10273000CE01B401A50196010E94340B50C099E36B
:10274000C91690E3D90641F5ADB7BEB71A970FB6D3
:10275000F894BEBF0FBEADBFEDB7FEB7319680E6B1
:102760009CE012969C938E931197888182831382AA
:102770008981848315828A81868317828B818087F1
:1027800011860E94E04CEDB7FEB73A960FB6F8946A
:10279000FEBF0FBEEDBF23C000D000D081E89CE09B
:1027A000ADB7BEB712969C938E9311971496DC9298
:1027B000CE9213970E94E04C0F900F900F900F90C5
:1027C0000EC000D08AEA9CE0EDB7FEB79283818309
:1027D0000E94E04C0F900F90C5010E94FF1080E016
:1027E000DF91CF911F910F91FF90EF90DF90CF90ED
:1027F000BF90AF909F908F900895CF92EF92FF92ED
:102800000F931F93CF93DF93EC018A018881998105
:10281000009731F021E08437920709F01FC185C08D
:1028200000D000D084EC9CE0EDB7FEB792838183AA
:10283000E091641CF091651C82819381EDB7FEB735
:10284000948383830E94E04C809A85B7806185BF22
:1028500080913601806880933601809136018064D2
:10286000809336016898699A6A9A6B9A6C9A6D9807
:10287000729A739A749A0F900F900F900F9080E055
:102880006CE046E90E94DE1D80E065E172E10E9495
:10289000251E81E067E646E90E94DE1D81E06BEBC4
:1028A00072E10E94251E80EB92E10E94880C81E972
:1028B0009DE00E94780300D08EEC9CE0EDB7FEB75F
:1028C000928381830E94E04C0F900F9080E090E013
:1028D0000E9484030E947C108FE79DE06CE172E10E
:1028E0000E94620D00D08FED9CE0EDB7FEB79283A1
:1028F00081830E94E04C0F900F9080E090E00E9456
:10290000720D0E94FF100E945D0D0E9456068FEE10
:102910009CE00E94194D84E09DE00E94194D84E7DF
:1029200091E09983888381E09CC08091E41290912A
:10293000E512009759F18091E4129091E51200D0D0
:1029400000D02EE13DE0EDB7FEB7328321839483C2
:1029500083830E94E04C0F900F900F900F9080E0C7
:1029600090E00E94800DBC012091E4123091E512AC
:1029700082E0A80105E41DE0ABE0EA2ECC24C3947C
:102980000E9401081092E5121092E4128091E21266
:10299000882341F081E59DE00E94194D0E94F70BCC
:1029A0001092E2128091E312882361F08091E61286
:1029B000882341F48091E712882321F40E942F1389
:1029C0001092E3128091E012882309F442C0F89437
:1029D0004091E8125091E91278948AEE92E162E512
:1029E00075E10E9431068C0180E090E060E070E0CB
:1029F0004AEA57E122E535E10E940D04009729F1EA
:102A000086ED98E16AED78E14CED58E120EE38E191
:102A100002EE18E1FAEAEF2EF7E1FF2E0E94EC0F2A
:102A20007C01009779F06091DA187091DB182091A1
:102A3000E0183091E11886ED98E14CED58E10E94E4
:102A4000671307C08EE59DE002C08EE69DE00E9400
:102A5000194DF8941092E01278945DCF1982188283
:102A600083E0DF91CF911F910F91FF90EF90CF9076
:102A700008951F93CF93DF93EC01162F888580FF75
:102A80001DC0EC81FD813097C9F0D093651CC093C7
:102A9000641C82E08887CE0106960995992787FDF8
:102AA000909502978230910510F0133829F4CE01E9
:102AB000BE010E94621502C081E08887DF91CF913C
:102AC0001F910895CF92DF92EF92FF920F931F9381
:102AD000CF93DF93EC017B01C090641CD090651C08
:102AE0000091621C1091631CF80103C00190F081F9
:102AF000E02DEC17FD0719F03097C1F746C020977D
:102B000009F443C08885882309F118860BC0C017D3
:102B1000D10729F0C80167E8AE010E943915F80114
:102B2000008111810115110591F7EC81FD8130972C
:102B300069F0CE15DF0551F0D093651CC093641C7D
:102B4000CE01069663E840E050E00995E091621CF2
:102B5000F091631CCE17DF0791F4888199819093DF
:102B6000631C8093621C0DC0808191818C179D072E
:102B700029F4888199819183808303C0FC01309777
:102B800099F7D092651CC092641CDF91CF911F9180
:102B90000F91FF90EF90DF90CF9008951F93CF9308
:102BA000DF931092661CC091621CD091631C11E0EF
:102BB0000EC08985882341F018871986CE0162E806
:102BC00040E050E00E9439150990D881C02D20972F
:102BD00081F7DF91CF911F9108958091111D982F5A
:102BE0009F5F9093111D08956091641C7091651C06
:102BF0000E94621508958AE88093111D1092681C46
:102C00001092671C1092631C1092621C1092651C3B
:102C10001092641C08958091661C882311F00E9414
:102C2000CE157091671C772309F455C02091681C5C
:102C300030E0F901EE0FFF1FEE0FFF1FE20FF31F51
:102C4000E759F34E60816093101D4181528150938A
:102C50000F1D40930E1D8381948190930D1D8093D1
:102C60000C1D2F5F3F4F2F7130702093681C7150E7
:102C70007093671C009741F58091621C9091631CD2
:102C800018C08091661C882311F00E94CE154091D7
:102C90000E1D50910F1D80910A1D90910B1D60918A
:102CA000101D0E943915E0910A1DF0910B1D8081C5
:102CB000918190930B1D80930A1D80910A1D909124
:102CC0000B1D0097F1F607C0613819F421E0FC01F3
:102CD00020870E9439158091661C2091671C30E086
:102CE000280F311DC90108958091661C2091671C31
:102CF00030E0280F311DC90108957091671C7032B2
:102D0000D9F02091681C270F2F712093091D30E006
:102D1000F901EE0FFF1FEE0FFF1FE20FF31FE75940
:102D2000F34E608352834183948383837F5F7093E8
:102D3000671C20E030E002C021E030E0C9010895C6
:102D4000CF93DF93C091641CD091651C0E9439150C
:102D5000D093651CC093641CDF91CF910895FC0152
:102D6000AB019091621C8091631C9C01A32FB22F38
:102D700003C00D90BC91A02DAE17BF0791F0109726
:102D8000C1F7309771F090838183F093631CE093D7
:102D9000621C81E0808717821682CF0161E80E9461
:102DA000A0160895FC01009741F080858150823083
:102DB00020F481E081878093661C089521E030E053
:102DC000FC018085882311F420E030E0C9010895DA
:102DD0008091121D9091131D009729F41092151DDA
:102DE0001092141D08950E94461CE091121DF0914E
:102DF000131D2281338140815181240F351F281BEF
:102E0000390B0CC04281538160817181460F571F7D
:102E1000481B590B4217530708F49A010480F581A7
:102E2000E02D309779F7280F391F3093151D209327
:102E3000141D089580EC9DE00E94D2160895CF9253
:102E4000DF92EF92FF920F931F93CF93DF937C015A
:102E5000FC0180819181009729F08935910509F065
:102E60006EC00BC01092131D1092121D89E590E0E8
:102E7000F7019183808381E066C0673849F5CA0114
:102E8000E091121DF091131D03C00480F581E02D27
:102E9000309741F32681378128173907B1F3E09342
:102EA000121DF093131D0FC016962D913C9117978C
:102EB0002817390739F414962D913C9115973583CD
:102EC0002483DF01FD01A481B581109769F7CECF7E
:102ED000623861F6C091121DD091131D00E010E020
:102EE0002BC0CE010E94DE2D0097F1F08E819F81D4
:102EF00068E8AE010E947D160097A1F41F821E8231
:102F00008C819D810115110521F0F8019583848341
:102F100004C09093131D8093121D1D821C820E9479
:102F2000E816D8CF0E941A178E019C818D81C92E78
:102F3000E6016E01D82EE601209799F697CFF701AA
:102F40001182108283E0DF91CF911F910F91FF904A
:102F5000EF90DF90CF900895CF93DF93EC010E9424
:102F60001A178E819F81009769F0E091121DF091F0
:102F7000131D06C0EC17FD07A9F00480F581E02DB4
:102F80003097C1F78091641C9091651C9F838E835C
:102F90008091121D9091131D9D838C83D093131DDE
:102FA000C093121D0E94E816DF91CF910895CF9330
:102FB000DF93EC010E94BE2DCE010E94AC17DF9181
:102FC000CF910895CF93DF93EC010E94CA2DCE01DB
:102FD0000E94AC17DF91CF910895CF93DF93EC015E
:102FE0000E94D42DCE010E94AC17DF91CF9108959D
:102FF000FC0180819181860F971F918380830E94BD
:10300000E816089521E030E0FC0186819781009761
:1030100011F020E030E0C9010895FC0122813381E4
:1030200080819181280F391FC9010895FC01808199
:103030009181089521E030E08091121D9091131D3F
:10304000009711F420E030E0C90108958091121D2D
:103050009091131D009729F02091141D3091151D9A
:1030600002C020E030E0C9010895CF93DF93EC0166
:10307000E091121DF091131D8E179F0741F48C8172
:103080009D819093131D8093121D14C0FC013097F5
:1030900031F0848195818C179D07C1F707C01D828F
:1030A0001C821F821E82DF91CF9108958C819D81A9
:1030B000958384830E94E816F2CFCF92DF92EF923D
:1030C000FF920F931F93CF93DF938C017A01FC0142
:1030D00080819181009729F08A34910509F051C0CF
:1030E0001EC087E19DE10E940E2EC82EE6017E01E2
:1030F000F92EE70109C06C817D81CE0102960E9404
:10310000D7170990D881C02D2097A9F781E0809327
:10311000161D8AE490E0F8019183808337C06838F7
:10312000A9F587E19DE10E940E2EC82EE6016E01F1
:10313000D92EE60123C0CE010296E816F906D9F48D
:1031400087E19DE1BE010E945C2EE090641CF0903E
:10315000651C8A859B859093651C8093641CEC8517
:10316000FD85309719F08E859F850995F092651C35
:10317000E092641CCECF0990D881C02D2097D9F65B
:10318000C8CFF8011182108283E001C081E0DF9195
:10319000CF911F910F91FF90EF90DF90CF90089506
:1031A0001092161D87E19DE10E940A2E89ED9DE097
:1031B00060E070E00E94AF1608950F931F93CF93C5
:1031C000DF93EC010091641C1091651C1B870A873A
:1031D0005D874C873F872E878091161D882379F065
:1031E00089ED9DE09093651C8093641CCE0102964E
:1031F0000E94D7171093651C0093641C02C07D8346
:103200006C8387E19DE1BE010E945C2E87E19DE118
:10321000BE010E94952EDF91CF911F910F910895CD
:103220000F931F93CF93DF93EC018091161D88239A
:1032300091F00091641C1091651C89ED9DE09093C4
:10324000651C8093641CCE0102960E94E2171093C5
:10325000651C0093641C87E19DE1BE010E945C2E09
:1032600087E19DE1BE010E94952EDF91CF911F91D4
:103270000F9108950F931F93CF93DF93EC018091EB
:10328000161D882391F00091641C1091651C89ED36
:103290009DE09093651C8093641CCE0102960E9471
:1032A000ED171093651C0093641C87E19DE1BE013E
:1032B0000E945C2E87E19DE1BE010E94952EDF9168
:1032C000CF911F910F910895CF93DF93EC018091DF
:1032D000161D882329F0CE0102960E94351804C0DD
:1032E0001F821E821986188687E19DE1BE010E9419
:1032F0005C2EDF91CF910895CF93DF93EC01809105
:10330000161D882331F0CE0102960E9402189C01FE
:1033100014C087E19DE10E940E2EE82FF92F06C010
:10332000EC17FD0741F00190F081E02D3097C1F7D7
:1033300021E030E002C020E030E0C901DF91CF9110
:103340000895E6E4F1E030812081908180818295CA
:10335000869586958370307C830F269526952073FD
:10336000820F92959C70890F0895BF92CF92DF9241
:10337000EF92FF920F931F93DF93CF9300D0CDB7BF
:10338000DEB70E94621E0E946E1E80E06CE046E086
:103390000E94DE1D81E068E046E00E94DE1D80E0C4
:1033A0000E94591E0E94361C84B784B784B784B724
:1033B00084B7E1EEFDE222E432E4318320833A96E1
:1033C0008DB79EB70A97E817F907B8F300D000D079
:1033D00080EB91E0ADB7BEB712969C938E93119798
:1033E00083EE9DE014969C938E9313970E94F24C6B
:1033F0000F900F900F900F900E947C2F0E94FB1552
:1034000080EC9DE060E070E00E94AF160E94D01852
:10341000E091140EF091150E09950E94A11990E00B
:103420000E947931CE0101960E941D1C882359F01B
:1034300000D080E991E0EDB7FEB7928381830E94CE
:10344000F24C0F900F908E010F5F1F4FC8010E942A
:1034500024260E94271C7C010E942C1CBC01C70151
:10346000A8010E94B1210E94851B0E9496210E9402
:10347000311C0E94392300D083E891E0ADB7BEB77C
:1034800012969C938E9311970E94F24C00D0EDB748
:10349000FEB731960FE711E0ADB7BEB712961C9399
:1034A0000E9311978A81828313820E94F24CEDB7AA
:1034B000FEB73196ADB7BEB712961C930E93119717
:1034C0008981828313820E94F24C0F900F908DE7C6
:1034D00091E0EDB7FEB7928381830E94F24C0F908A
:1034E0000F900E945733E091860EF091870E099558
:1034F000E0916D0EF0916E0E0995E091420EF09103
:10350000430E099500916B0E10916C0EC090840EC5
:10351000D090850E0E949321B82EE090920EF090EC
:10352000930EF7010995009749F0F7010995BC0141
:1035300080E890E00E94624B7B0103C080E8E82EA7
:10354000F12C0E943C232DB73EB72C5030400FB6D3
:10355000F8943EBF0FBE2DBFEDB7FEB731962BE4FA
:1035600031E0ADB7BEB712963C932E9311971383FB
:103570000283D582C482B6821782F186E086828772
:1035800013860E94F24CEDB7FEB73C960FB6F89446
:10359000FEBF0FBEEDBF89EB9EE060E070E00E94D1
:1035A000AF168EE692E00E94922D00D083E491E067
:1035B000ADB7BEB712969C938E9311970E94F24CB2
:1035C0000F900F900F900F90CF91DF911F910F915F
:1035D000FF90EF90DF90CF90BF900895AF92BF9291
:1035E000CF92DF92EF92FF920F931F93CF93DF93CF
:1035F0000E94B5199CE3A92EB12CC12CD12CC6E296
:10360000D1E00E940B160E947A1E80912D25909188
:103610002E25009729F0019790932E2580932D2534
:10362000E0902F25F0903025009131251091322522
:103630000E94531CE616F7060807190711F30E94AB
:10364000531C60932F2570933025809331259093E0
:103650003225A60195010E94894B611571058105EE
:10366000910511F40E94BA2F80912F259091302559
:10367000A0913125B09132259370A070B070833045
:103680009105A105B10509F0BCCFE1EEFDE2808115
:10369000918122E482349207A9F000D000D0ADB726
:1036A000BEB71296DC93CE931197E15EFD4214965D
:1036B000FC93EE9313970E94F24C0F900F900F9093
:1036C0000F909FCF3A96B1E4E53FFB0700F399CF07
:1036D00000D000D000D0EDB7FEB7319620E231E047
:1036E000ADB7BEB712963C932E9311979383828306
:1036F000758364830E94F24C8DB79EB706960FB611
:10370000F8949EBF0FBE8DBF08950F931F93DF9354
:10371000CF93CDB7DEB7A2970FB6F894DEBF0FBE3A
:10372000CDBF82E290E00E94A84F89839A83982FB0
:103730009B50903108F08A839A819095891709F4FB
:1037400070C000D08BEE91E0ADB7BEB712969C93DF
:103750008E9311970E94F24C8E010D5F1F4F0F90B8
:103760000F90D80180E090E0FC01E553FE4FE4911A
:10377000ED93019688309105B9F7F894CE01039640
:1037800060E070E048E050E00E94AE4FD80180E079
:1037900090E0FC01ED52FE4FE491ED9301968E30E6
:1037A0009105B9F7CE01039668E070E04EE050E075
:1037B0000E94AE4F80E090E0FC01EF51FE4FE4919B
:1037C000D801ED938D0101968A309105A9F7CE01BC
:1037D000039666E170E04AE050E00E94AE4F84E25A
:1037E00090E06DEC7BEA0E94C64F86E290E060E0DC
:1037F00070E00E94C64F88E290E060E00E94B84FFF
:1038000080E290E060E070E00E94C64F8AE1898328
:1038100085EE8A8369817A8182E290E00E94C64FB8
:1038200078948981A2960FB6F894DEBF0FBECDBF03
:10383000CF91DF911F910F910895F89460E070E0AF
:1038400042E050E00E94904F789480E0089584E236
:1038500090E00E94A84F089586E290E00E94A84F51
:10386000089588E290E00E94A04F0895F894109285
:10387000B60016BC83EF87BD82E084BD94E095BDA1
:1038800095B395BB80936E00789408952091191D8F
:1038900030911A1D8091191D90911A1D2817390712
:1038A000A9F7C901089520913B2530913C2540910D
:1038B0003D2550913E2580913B2590913C25A0913E
:1038C0003D25B0913E25281739074A075B0759F770
:1038D000B901CA01089560933B2570933C258093FC
:1038E0003D2590933E250895CF93DF93EC010E94F0
:1038F000461CC80FD91F0E94461C8C1B9D0B97FDB0
:10390000FACFDF91CF9108958430910548F0039765
:10391000880F991F880F991F969587950197F1F742
:103920000895CF93DF93EC0184EE93E005C00E94ED
:10393000841C219787EE93E02097C9F7DF91CF9100
:1039400008950F931F931FB7F8942091191D30917C
:103950001A1D280F391F30931A1D2093191D20910D
:103960001B1DFC01E20FF11D0091DA266091372545
:10397000709138258091392590913A25DF012CC02E
:10398000A058B04020913B2530913C2540913D25E9
:1039900050913E252F5F3F4F4F4F5F4F20933B2568
:1039A00030933C2540933D2550933E250023A1F0C4
:1039B000209133253091342540913525509136257D
:1039C0002F5F3F4F4F4F5F4F209333253093342568
:1039D0004093352550933625A038B10588F69F01D0
:1039E000220F232F221F330B319540E050E0260F8A
:1039F000371F481F591F2093372530933825409390
:103A0000392550933A25EF77F070E0931B1D1FBFC7
:103A10001F910F9108951F920F920FB60F920BB640
:103A20000F9211242F933F934F935F936F937F9344
:103A30008F939F93AF93BF93EF93FF938091191D43
:103A400090911A1D019690931A1D8093191D8091D3
:103A50001B1D8F5F80931B1D80911B1D87FF15C051
:103A600010921B1D80913B2590913C25A0913D25F6
:103A7000B0913E250196A11DB11D80933B259093E9
:103A80003C25A0933D25B0933E258091DA268823DE
:103A9000F1F080911C1D8F5F80931C1D80911C1D77
:103AA00087FF15C010921C1D8091332590913425FD
:103AB000A0913525B09136250196A11DB11D8093A9
:103AC000332590933425A0933525B09336250E9455
:103AD0001A18009711F00E941A17FF91EF91BF91E9
:103AE000AF919F918F917F916F915F914F913F9196
:103AF0002F910F900BBE0F900FBE0F901F90189537
:103B00001F920F920FB60F920BB60F9211242F93A4
:103B10003F934F935F936F937F938F939F93AF9355
:103B2000BF93EF93FF938091C600E0914125F09100
:103B30004225309709F00995FF91EF91BF91AF9120
:103B40009F918F917F916F915F914F913F912F91B5
:103B50000F900BBE0F900FBE0F901F9018951F92E5
:103B60000F920FB60F920BB60F9211242F933F9323
:103B70004F935F936F937F938F939F93AF93BF9375
:103B8000EF93FF938091CE00E0913F25F091402587
:103B9000309709F00995FF91EF91BF91AF919F91F7
:103BA0008F917F916F915F914F913F912F910F90E6
:103BB0000BBE0F900FBE0F901F901895882371F4C5
:103BC0001092C5006093C40088E98093C1004093BF
:103BD000C20010924225109241250895813069F467
:103BE0001092CD006093CC0088E98093C900409387
:103BF000CA001092402510923F250895882339F479
:103C00008091C00085FFFCCF6093C600089581308D
:103C100031F48091C80085FFFCCF6093CE000895F9
:103C20001F93182F8A3031F480911D1D6DE00E9482
:103C3000FE1D02C08D3029F080911D1D612F0E9454
:103C4000FE1D80E090E01F910895882329F4709371
:103C50004225609341250895813021F470934025D9
:103C600060933F250895EF92FF921F93CF93DF93C8
:103C7000182FE62EE7017E01F72EE7010CC08A30EF
:103C800021F4812F6DE00E94FE1D69916D3019F0C5
:103C9000812F0E94FE1D8881882389F7DF91CF91B3
:103CA0001F91FF90EF900895682F80E00E94FE1D05
:103CB000089580931D1D8FEE9DE09093DE2D8093DF
:103CC000DD2D089584B7877F84BF88E10FB6F8940F
:103CD00080936000109260000FBE08952FE088E18D
:103CE00090E00FB6F894A895809360000FBE2093E3
:103CF00060000895A895089588E10FB6F894809320
:103D00006000109260000FBE0895F89428E088E1EA
:103D100090E00FB6F894A895809360000FBE2093B2
:103D20006000FFCF80914E2590E0FC01EE0FFF1F59
:103D30009695982F882797958795E80FF91FE15B4F
:103D4000FA4D108208958091482590E00895809161
:103D5000390181FD12C081E491E06FE140E00E94F1
:103D60001525982F8151823050F09F3141F09130CC
:103D700041F081E0923031F402C081E0089580E0AA
:103D8000089580E008958091390181FD04C00E946A
:103D9000A71E8823C1F308958091390181FD0CC0CD
:103DA00081E491E06FE140E00E941525813039F017
:103DB00021E030E0813129F020E030E002C021E054
:103DC00030E0C90108958091390181FF09C08091D7
:103DD00039018D7F809339018DE090E00197F1F7F3
:103DE00082E491E06FE140E023E00E941F2583E040
:103DF00090E00197F1F708951092DA268091390149
:103E000081FD8FC00E94C31E8091390181FD89C050
:103E10000E94E31E80913901826080933901809174
:103E20005C278823E9F1809194009091950020917E
:103E30006D2730916E2782179307A0F48091392760
:103E400090913A27A0913B27B0913C278C57914EF7
:103E5000AF4FBF4F8093392790933A27A0933B27CA
:103E6000B0933C278091940090919500821B930B16
:103E7000A0E0B0E02091392730913A2740913B27CC
:103E800050913C27820F931FA41FB51F80933927A1
:103E900090933A27A0933B27B0933C2710925C273E
:103EA00080915E278823E9F180919400909195009C
:103EB000209171273091722782179307A0F4809187
:103EC000412790914227A0914327B09144278C57D6
:103ED000914EAF4FBF4F8093412790934227A093BD
:103EE0004327B09344278091940090919500821BC2
:103EF000930BA0E0B0E02091412730914227409100
:103F0000432750914427820F931FA41FB51F80930E
:103F1000412790934227A0934327B09344271092C0
:103F20005E2708958091DA26882321F00E94A71E3B
:103F30000E94FC1E80E090E008959091390191FD6F
:103F40000AC0282F803108F02FE085E491E06FE06F
:103F500040E00E941F250895B82FA92FF62FE72FC4
:103F60002091DD263091DE264091DF265091E0261B
:103F70002F5F3F4F4F4F5F4F2093DD263093DE265C
:103F80004093DF265093E026862F8E5F87FF0CC07C
:103F90008091D8269091D92601969093D926809326
:103FA000D8262FEF3FEF0BC02EE13DE1C9016B2F6B
:103FB0007A2F4F2F5E2F0E944D4C20E030E0C90138
:103FC000089581E491E06FE140E00E941525089595
:103FD0000F931F93182F883049F0863039F08930BD
:103FE00029F0863119F0893109F045C080913901F5
:103FF00081FD44C00E94C31E0E94E11F082F1817B4
:1040000009F442C0183029F4809139010E94E31E5E
:1040100024C0193119F4863181F404C0163169F4D1
:10402000893159F482E491E06FE140E029E00E9497
:104030001F25E3E0F0E03197F1F782E491E06FE1D2
:1040400040E0212F0E941F25083019F4E9E6F1E035
:1040500002C0E3E0F0E03197F1F70E94E11F811721
:1040600099F0163019F4813061F40EC0163149F41C
:10407000813139F409C022E430E008C024E430E0A2
:1040800005C023E430E002C020E430E0C9011F9104
:104090000F910895809194009091950090937227CC
:1040A0008093712721E020935E272093DA26809168
:1040B000390181FF1EC080919400909195009093EA
:1040C0006E2780936D2720935C272093D5262FB7EA
:1040D000789480913901809139018D7F80933901E5
:1040E00080E197E23091D526332311F00197D1F783
:1040F0002FBF86E10E94E81F0E94C31E0895809191
:10410000DA26882311F40E944A2081E090E0089585
:104110000F931F93DF93CF930F92CDB7DEB78091AC
:10412000DA26882359F08091390181FD7DC00E94F3
:10413000A71E882309F478C000E003C00E947F20F6
:1041400001E0809194009091950090936C2780936A
:104150006B2711E010935B2780E88093550186E080
:104160000E94E81F109349258FB789837894109295
:104170004701809149258823E1F789818FBF80918C
:1041800047018E3010F010E001C01FEF86E10E9461
:10419000E81F1092550180915B278823E9F18091F7
:1041A00094009091950020916B2730916C27821795
:1041B0009307A0F48091352790913627A091372757
:1041C000B09138278C57914EAF4FBF4F8093352712
:1041D00090933627A0933727B09338278091940087
:1041E00090919500821B930BA0E0B0E020913527C1
:1041F000309136274091372750913827820F931FEF
:10420000A41FB51F8093352790933627A093372797
:10421000B093382710925B27002311F00E94921F61
:1042200021E030E016FD02C020E030E0C9010F902F
:10423000CF91DF911F910F9108958093A01D089554
:104240000E94E11F8250813130F4E82FF0E0E85DF8
:10425000F14F8081089581E00895282F8EE691E046
:1042600060E245E00E941F2508958FEF80934E0184
:104270008CE691E060EF44E021E00E941F258CE68F
:1042800091E06EE041E025E00E941F2580E88093E8
:104290006F018091460180936D0184E491E060E2BA
:1042A00045E021E00E941F250895CF93DF93CDEFD5
:1042B000D3E0CE010197F1F70E94142510924F250B
:1042C0001092D1251092532610924E2510924D2512
:1042D000E9E3F1E080818E7F808380818D7F808320
:1042E00081EC9DE00197F1F780818160808382E419
:1042F00091E06FE140E023E00E941F252197F1F754
:1043000080915D0180915E010E9435218AE09EE0EE
:1043100060E070E00E94AF160E944A2081E090E0C9
:10432000DF91CF91089580919F1D0895DF93CF93E2
:104330000F92CDB7DEB789830E94C31E29812093D7
:104340009F1D88E491E06FE140E00E941F250F90DF
:10435000CF91DF9108950E94962186E00E94E81F88
:10436000089580936201909363016093600170935C
:1043700061014115510531F1FA01819180936B0181
:10438000DA0111968C9180936A01DF011196818187
:1043900080936901FD01319611968C91809368019B
:1043A000DF011196818180936701FD01319611969D
:1043B0008C91119780936601818180936501828140
:1043C0008093640108958AE09EE00E94D21681E005
:1043D0008093482580914A2590914B250196909392
:1043E0004B2580934A258091212790912227A091E7
:1043F0002327B09124270196A11DB11D8093212769
:1044000090932227A0932327B093242781E090E064
:104410000895EF92FF92CF93DF9350914E25252F71
:1044200030E0F901EE0FFF1F3695322F2227379526
:104430002795E20FF31FE15BFA4D4081442309F415
:10444000C8C047FF16C00E94921E80910D27909110
:104450000E27A0910F27B09110270196A11DB11D25
:1044600080930D2790930E27A0930F27B0931027CA
:10447000B0C04330B0F40E94921E80910927909101
:104480000A27A0910B27B0910C270196A11DB11D01
:104490008093092790930A27A0930B27B0930C27AA
:1044A00098C0C42FD0E022976C177D07B0F40E940B
:1044B000921E8091052790910627A0910727B09121
:1044C00008270196A11DB11D80930527909306270B
:1044D000A0930727B09308277CC0652F70E09B014D
:1044E000220F331F7695762F662777956795260FCF
:1044F000371F205B3A4DB90150E00E944D4C20918E
:104500004E25822F90E0FC01EE0FFF1F9695982F0D
:10451000882797958795E80FF91FE153FA4D808119
:1045200080934325822F90E0FC01EE0FFF1F9695AC
:10453000982F882797958795E80FF91FE15BFA4D2B
:1045400010822F5F20934E25233010F010924E25BD
:1045500080914E2590E0FC01EE0FFF1F9695982F5D
:10456000882797958795E80FF91FE15BFA4D8081C1
:10457000882319F00E94E32102C01092482560911F
:1045800047016093442580914725882311F06817DF
:1045900010F46093472584E070E00E94313360910D
:1045A000432583E070E00E9431338091E1269091B1
:1045B000E226A091E326B091E4260196A11DB11D4B
:1045C0008093E1269093E226A093E326B093E4261D
:1045D00002C0C0E0D0E0CE01DF91CF91FF90EF901C
:1045E00008950F931F93DF93CF930F92CDB7DEB74C
:1045F0008C01FC0180819181009729F0F5E08A33DC
:104600009F0759F506C08AE395E0F80191838083FE
:1046100029C0623839F50E94AB328FB78983F8948C
:104620000E94083260E870E00E94092229812FBFB1
:104630001816190644F40E940332E0918C0EF09192
:104640008D0E0995E0CF80914525909146250196E4
:104650009093462580934525D6CFF801118210828C
:1046600083E001C081E00F90CF91DF911F910F9106
:1046700008950E949D1F08958091390181FD07C012
:1046800085E491E06FE040E00E941525089580E107
:104690000895DF92EF92FF920F931F93DF93CF93D2
:1046A0000F92CDB7DEB7D82E8091390181FF1AC0A5
:1046B000809194009091950090936E2780936D2740
:1046C00081E080935C278093D526809139018D7F8E
:1046D0008093390180E197E22091D526222311F0C1
:1046E0000197D1F70E94C31E8091DA26882309F42E
:1046F00041C080915E278823E9F120919400309198
:104700009500809171279091722728173907A0F49E
:1047100020914127309142274091432750914427CF
:104720002C57314E4F4F5F4F2093412730934227F4
:104730004093432750934427209194003091950053
:10474000281B390B40E050E0E0904127F0904227D1
:1047500000914327109144272E0D3F1D401F511FEC
:104760002093412730934227409343275093442777
:1047700010925E2789E10E94E81F86E00E943C3388
:10478000009751F00E943C23082F86E00E943C33A2
:1047900081500E949D1F02C000E010E080919400B3
:1047A000909195009093702780936F2781E080937C
:1047B0005D278FB78983F894809139018260809357
:1047C0003901809139018D7F809339016D2D6E5FA4
:1047D0008EE19DE10E94682589818FBF8091D62658
:1047E0009091D72601969093D7268093D6260E9443
:1047F000C31E82E491E060EE45E00E941525E82E9C
:1048000086E00E943C33009719F0802F0E949D1F84
:1048100080915D278823E9F12091940030919500E3
:1048200080916F279091702728173907A0F4209165
:104830003D2730913E2740913F27509140272C57EC
:10484000314E4F4F5F4F20933D2730933E2740938B
:104850003F27509340272091940030919500281BCA
:10486000390B40E050E060913D2770913E278091E8
:104870003F2790914027260F371F481F591F20932D
:104880003D2730933E2740933F2750934027109277
:104890005D278091DA26882371F0809194009091B1
:1048A0009500909372278093712781E080935E2713
:1048B0000E944A2002C00E94FC1E8E2D813011F001
:1048C000EE2069F580911D2790911E27A0911F274A
:1048D000B09120270196A11DB11D80931D279093B3
:1048E0001E27A0931F27B09320278CE00E943C3303
:1048F000009709F44AC08091F9269091FA26A09178
:10490000FB26B091FC260196A11DB11D8093F926CE
:104910009093FA26A093FB26B093FC2636C08E2DEA
:104920008330B1F48091152790911627A091172715
:10493000B09118270196A11DB11D80931527909362
:104940001627A0931727B093182702E0E02E21C066
:104950008E2D8530B1F48091012790910227A0918E
:104960000327B09104270196A11DB11D8093012753
:1049700090930227A0930327B093042713E0E12E1E
:1049800008C08E2D873029F402C0EE2402C0EE2428
:10499000E3948E2D90E00F90CF91DF911F910F91B6
:1049A000FF90EF90DF900895CF93DF93EB010E948B
:1049B000AC1F9C01009731F4CE010E9449239C0159
:1049C000009749F08091D8269091D926019690932E
:1049D000D9268093D826C901DF91CF9108950F93EE
:1049E0001F938091DA26882321F40E947F2011E012
:1049F00001C010E00E94E11F863111F0813119F4ED
:104A00000091470109C086E491E06FE140E00E9417
:104A10001525082F000F080F112311F00E94921F77
:104A2000802F1F910F9108950895FC0180818623A6
:104A300090E002C0959587954A95E2F70895DF9337
:104A4000CF930F92CDB7DEB73FB73983F894FC010F
:104A50009081862F8095892330E002C0220F331F7A
:104A60004A95E2F72623282B208389818FBF0F9058
:104A7000CF91DF91089520917B01322F33503D3744
:104A800058F0DC011C92FC01E058FF4F10828F5758
:104A90009F4FFC0110820895FC012193215030E0CA
:104AA000A9014F575E4FA0E8B1E06D916193A41743
:104AB000B507D9F7FC01E058FF4F2F573E4FD901FA
:104AC0002C9120838F579F4F21E0FC012083089574
:104AD000FC016093800101966350860F911DA1E84F
:104AE000B1E021912D93E817F907D9F708951F92A6
:104AF0000F920FB60F920BB60F9211242F933F9384
:104B00004F935F936F937F938F939F93AF93BF93D5
:104B1000EF93FF93809147018093442520914D2589
:104B200030E0C901880F991F3695322F222737951B
:104B30002795820F931F815B9A4D0E943B258091A0
:104B40004D258F5F80934D25833010F010924D25B9
:104B50000E94E321FF91EF91BF91AF919F918F91BF
:104B60007F916F915F914F913F912F910F900BBE6D
:104B70000F900FBE0F901F9018951F920F920FB6B7
:104B80000F9211240F900FBE0F901F9018951F9237
:104B90000F920FB60F9211240F900FBE0F901F901F
:104BA00018951F920F920FB60F9211240F900FBEFF
:104BB0000F901F9018951F920F920FB60F9211240D
:104BC0001092D5260F900FBE0F901F9018951F9230
:104BD0000F920FB60F92112410924C250F900FBE1A
:104BE0000F901F9018951F920F920FB60F921124DD
:104BF0000F900FBE0F901F9018951F920F920FB637
:104C00000F921124109249250F900FBE0F901F9004
:104C10001895FC01DB018C91808311968C91119782
:104C200081830895FC01DB0190818C91981741F4F8
:104C300021E030E0918111968C911197981711F035
:104C400020E030E0C9010895FC0180818093DB26DB
:104C500081818093DC2608950F931F93CF93DF9378
:104C60008091E1269091E226A091E326B091E4267E
:104C70000196A11DB11D8093E1269093E226A09399
:104C8000E326B093E4260E945A29EC0181EA9DE1D3
:104C90000E940E2E0BC0D8011296ED91FC91139735
:104CA000309709F00995C8010E94D42E082F192FBA
:104CB0000115110581F7209719F0CE010E943F29B7
:104CC000DF91CF911F910F9108950E9457330E9459
:104CD000AB320E94E1260E94572982E090E060E01A
:104CE00072E040E05EE12FEF31E00E947E280895FF
:104CF000CF92DF92EF92FF920F931F93CF93DF93A8
:104D00006C01EB018A0181EA9DE10E940E2E0CC02C
:104D1000D7011496ED91FC911597309711F0CE01C3
:104D20000995C7010E94D42EE82EF92EE114F10452
:104D300079F7C601BE01A8010E944B29DF91CF91EE
:104D40001F910F91FF90EF90DF90CF900895BC01DD
:104D500081EA9DE10E94952E0895BC0181EA9DE1C2
:104D60000E945C2E0895CF93DF93EC018091DD26A5
:104D70009091DE26A091DF26B091E0260196A11D3C
:104D8000B11D8093DD269093DE26A093DF26B0939D
:104D9000E026CE010E947129009769F00E94253219
:104DA000E0916F0EF091700E88E796E2BE010995D2
:104DB00021E030E002C020E030E0C901DF91CF9176
:104DC000089583EA9DE10E940A2E08950F93CF93E0
:104DD000DF93EC017B836A8318865F834E8383EACB
:104DE0009DE1BE010E94952EE091A51DF091A61DAA
:104DF000309749F04C815D818A819B81688520E0F4
:104E000030E001E00995DF91CF910F910895BC0149
:104E100083EA9DE10E945C2E08950F93DC011896B1
:104E20001C921897E091A51DF091A61D309759F09E
:104E300012968D919C91139760E040E050E020E045
:104E400030E000E009950F9108950F93DC01AB016C
:104E500014962D913C91159781E018968C93189794
:104E600015967C936E931497E091A51DF091A61D65
:104E7000309739F012968D919C91139761E000E084
:104E800009950F9108950F93DC01E091A51DF09114
:104E9000A61D309769F014962D913C9115971296A6
:104EA0008D919C91139718966C91A90101E0099539
:104EB0000F910895E091A71DF091A81D309709F07A
:104EC000099508959093A81D8093A71D0895909328
:104ED000A61D8093A51D089583EA9DE10E940E2ED4
:104EE0000895EF92FF920F931F93CF93DF938C015E
:104EF000EB017A0183EA9DE10E940E2E15C0DC01D0
:104F000012962D913C9113972C173D0759F4169644
:104F1000ED91FC911797309761F0B801AE019701C0
:104F2000099507C00E94D42E282F392FC901009758
:104F300031F7DF91CF911F910F91FF90EF9008957E
:104F40000895AF92BF92CF92DF92EF92FF920F93AC
:104F50001F93DF93CF9300D0CDB7DEB75B010E94E4
:104F600008328C01FC01E080F180FA82E9820E9423
:104F70005A329701220F331F220F331F2E5F3F4FEC
:104F80008217930798F0CC24DD240DC0F8016281CC
:104F9000738144815581C5010E9471270894C11C09
:104FA000D11C0C5F1F4FCE14DF0480F30F900F90C5
:104FB000CF91DF911F910F91FF90EF90DF90CF90F5
:104FC000BF90AF900895CF93DF93C4ECDDE1609183
:104FD000DA1D7091DB1DCE0145E158E220E030E0A2
:104FE0000E94DD180E947C316091DA1D7091DB1DFA
:104FF0000E94624BBC01CE0140974AE258E220E099
:1050000030E00E94DD18DF91CF9108950F930130B9
:1050100051F48091D41D9091D51D9093DB1D809308
:10502000DA1D0E94E3270F9108958091DA1D909177
:10503000DB1D2091D81D3091D91D880F991F28178D
:10504000390708F4C9019093DB1D8093DA1D0E9493
:10505000E3270895EF92FF92CF93DF930E94AB3244
:105060000E940832E82EE7017E01F92EE70119823D
:1050700018820E946C2726C028813981F901EE0F21
:10508000FF1FEE0FFF1FEC0FFD1FDC0112964D916D
:105090005C911397538342832F5F3F4FF901EE0FCB
:1050A000FF1FEE0FFF1FEC0FFD1F14964D915C913B
:1050B000159751834083398328830E94D42E282F4B
:1050C000392FC901009721F0FC0120852223A1F688
:1050D00088819981880F991F880F991F02960E94D5
:1050E000033288819981009721F089EA9DE10E942D
:1050F0001229DF91CF91FF90EF900895EF92FF92E8
:105100000F931F93CF93DF93FC018B017A01E90189
:1051100089EA9DE1BF0146E45EE00E94F428109315
:10512000D51D0093D41DF092D71DE092D61DD093CB
:10513000D91DC093D81D86E098E20E946727DF91B1
:10514000CF911F910F91FF90EF900895CF93DF9330
:10515000C4ECDDE1CE010E946419CE0140970E94AB
:105160006419CE014B970E940F29DF91CF910895CA
:105170008091DA1D9091DB1D0895DC011996ED9167
:10518000FC911A970280F381E02D309709F0099580
:105190000895EF92FF920F931F93DF93CF9300D068
:1051A000CDB7DEB78C0188E10E944F33BC017E0190
:1051B0000894E11CF11CC7010E940926D801199628
:1051C000ED91FC911A970190F081E02D309719F044
:1051D000C801B70109950F900F90CF91DF911F91F2
:1051E0000F91FF90EF900895EF92FF920F931F930E
:1051F000CF93DF93EC018B017A014AE45EE00E94D9
:105200002029FA86E986C8016EE47EE00E94C02962
:10521000DF91CF911F910F91FF90EF9008950E9421
:1052200039290895CF93DF93EC0188E16BED76E2A5
:105230000E944533CE010E943C29DF91CF91089511
:10524000EF92FF920F931F93CF93DF93EC018B01AB
:105250007A010E949929F886EF82C80162E57EE012
:105260000E94C029DF91CF911F910F91FF90EF9085
:1052700008950E94A22908950E94B3260895FC0172
:10528000A781B0852D913C9111972115310511F021
:10529000F90109950895DC011796ED91FC91189795
:1052A0000280F381E02D309709F0099508950E945E
:1052B00094290895EF92FF92CF93DF93E091540EDB
:1052C000F091550E0995EC01009729F06A817B81D8
:1052D00081E00E943133CE01DF91CF91FF90EF90BA
:1052E00008950F931F93CF93DF938C01E091560E97
:1052F000F091570E0995EC01F8016281738181E00C
:105300000E94313321E030E0209711F420E030E0BA
:10531000C901DF91CF911F910F910895E091580E2F
:10532000F091590E099508958EED9DE10E940A2E87
:105330000895FC01738362838EED9DE1BF010E949D
:10534000952E0895BC018EED9DE10E945C2E08957E
:10535000CF93DF93EC018EED9DE10E940E2E08C0ED
:10536000828193818C179D0739F0CF010E94D42E42
:10537000E82FF92F3097A1F7CF01DF91CF91089552
:105380000F931F93CF93DF938B010E94A829EC0109
:10539000009731F01D830C83C8010E948E298E83F3
:1053A000DF91CF911F910F910895FC0120E030E033
:1053B00004C08181280F311D329680818823C9F76E
:1053C000C9010895FC01818190E0308120E0822BA9
:1053D000932B02C0880F991F6A95E2F7892F9927AE
:1053E000FA01E65AF14F208130E08223932328E02E
:1053F00030E0241B350B02C0969587952A95E2F77D
:1054000008956F927F928F929F92AF92BF92CF92A8
:10541000DF92EF92FF920F931F93CF93DF936C0174
:105420007B015A0189012830310544F4CB01BA01CE
:10543000A9010E94E229F601808341C0390133E0CD
:10544000759467943A95E1F74115510521F04C01A7
:10545000C0E0D0E016C0DB01FC01C0E0D0E08D91DF
:1054600081932196C615D705D4F3A80147705070D3
:105470004115510521F1C7018C0F9D1F60E070E0BF
:1054800019C0C7018C0F9D1FB50148E050E00E9474
:10549000E229F40181934F012196C615D7058CF3BB
:1054A000A801477050704115510549F0C7018C0F94
:1054B0009D1FB5010E94E229CC0DDD1D8883DF917F
:1054C000CF911F910F91FF90EF90DF90CF90BF9001
:1054D000AF909F908F907F906F9008954F925F92C2
:1054E0006F927F928F929F92AF92BF92CF92DF92F4
:1054F000EF92FF920F931F93DF93CF9300D000D0D2
:10550000CDB7DEB70E940832E82E092F82E090E086
:105510000E94E431009709F464C0EE2DF02F9181D0
:1055200080E02081820F911D0E94A8297C010097B4
:1055300009F459C00E9408323C01F7014681242F2A
:1055400030E02770307081E090E02115310511F4D2
:1055500080E090E0469546954695840F911D0E9407
:10556000E4310097F1F1F70104811581CC24DD24A9
:1055700053E0452E512C4C0E5D1E4E010894811CAB
:10558000911C2AC0F801A180BB24B60143E07595A7
:1055900067954A95E1F7660D771DA6014770507033
:1055A000883150F0C40195010E94012AF8018081E0
:1055B000B4010E9445330CC01C821B82C2019501BC
:1055C0000E94012A6B817C81F80180810E94313325
:1055D000CA0CDB1C0E5F1F4FF8018081882391F6F7
:1055E00002C0EE24FF24C7010F900F900F900F9080
:1055F000CF91DF911F910F91FF90EF90DF90CF90AF
:10560000BF90AF909F908F907F906F905F904F90E2
:105610000895FC0150E080E190E0861B970B821B0F
:10562000930B02C0440F551F8A95E2F78081852BAA
:1056300080838181842B818308956F927F928F92E2
:105640009F92AF92BF92CF92DF92EF92FF920F9311
:105650001F93CF93DF938C015B016A01790128309E
:10566000310524F4C801FA01408156C0390163E0D4
:10567000759467946A95E1F7A114B10421F04A0189
:10568000C0E0D0E021C0DA01F80180E090E02D9187
:105690002193019686159705D4F3970127703070F2
:1056A00021153105D9F1F601E80FF91F408150E0CD
:1056B00068E070E0621B730B02C0559547956A95D0
:1056C000E2F7800F911F26C0F40141914F01C801FC
:1056D0008C0F9D1FB50128E030E00E94092B219618
:1056E000C615D7058CF39701277030702115310549
:1056F000A9F0F601EC0FFD1F408150E0C5010896AE
:10570000821B930B02C0559547958A95E2F7C80115
:105710008C0F9D1F60E070E00E94092BDF91CF91FC
:105720001F910F91FF90EF90DF90CF90BF90AF90BF
:105730009F908F907F906F9008954F925F926F929D
:105740007F928F929F92AF92BF92CF92DF92EF9211
:10575000FF920F931F93DF93CF9300D0CDB7DEB7A7
:105760008C01DC0116964C911697842F90E087707F
:10577000907021E030E0009711F420E030E0469591
:10578000469546957901E40EF11CC70102960E94E8
:105790007032009709F453C00E941032FC01D80106
:1057A00012968C911297808313968C9181830E941C
:1057B0001032F2E06F2E712C680E791EC30160E08A
:1057C00070E0A7010E94564CF801C480D58000E02B
:1057D00010E02E010894411C511C2AC0D6011196DC
:1057E0008C90119799247801E3E0F594E794EA9579
:1057F000E1F7E60CF71C77E0A72EB12CA022B1222E
:10580000883130F00E944F33AC01C701B50107C0A9
:105810000E943C339A838983C701B501A201940198
:105820000E941D2B080D191DE2E0F0E0CE0EDF1ED8
:10583000D6018C91882391F621E030E002C020E06F
:1058400030E0C9010F900F90CF91DF911F910F9120
:10585000FF90EF90DF90CF90BF90AF909F908F9090
:105860007F906F905F904F900895E091880EF09137
:10587000890E09950895E091440EF091450E099521
:105880000895E0918E0EF0918F0E09950895E091A4
:10589000900EF091910E0995089580E090E00895A2
:1058A0000895E091240EF091250E09950895009732
:1058B00031F0E091240EF091250E09950895E091C4
:1058C000260EF091270E0995089580E090E0089546
:1058D0000F931F93DF93CF93CDB7DEB7E0970FB64B
:1058E000F894DEBF0FBECDBF0E945A328C010E94D9
:1058F0000832602FAE014F5F5F4F0E94F03988235E
:1059000009F445C088A99801281B3109C9010E94E2
:10591000E4310097E1F12E81222371F18A859B8584
:105920003BEA8D3C930721F03FEF8F3F930779F5DA
:10593000223041F088E090E007C0019722912F3F8C
:1059400041F00BC082E090E0FE01E80FF91F3C96A9
:10595000F4CF181619068CF30FC089E1BE01645FFD
:105960007F4F0E94453389E10E944F336BED76E211
:105970000E941226009759F088E1BE016A5E7F4FAF
:105980000E944533E091710EF091720E0995E096F8
:105990000FB6F894DEBF0FBECDBFCF91DF911F9140
:1059A0000F910895AF92BF92CF92DF92EF92FF9244
:1059B0000F931F93DF93CF93CDB7DEB7E0970FB66A
:1059C000F894DEBF0FBECDBF6C018B01FE01319696
:1059D00080E3DF011D928A95E9F781E089838CE0FD
:1059E0000E943C338C831D821F828091E01D898739
:1059F0008F5F8093E01D83E0E82EE8868DEC9BEAC4
:105A00009B878A8789E10E944F3369E37EE00E9489
:105A10001226009731F082E08E838FEF8C878D877E
:105A200009C089E10E944F33BC01CE010C960E944F
:105A30000926EE828DEC9BEA9D8B8C8BCE014696DF
:105A40006BED76E20E9409260E9408329FA78EA77E
:105A50000E945A3288AB7E010894E11CF11CC701F8
:105A60000E94E738A82E90E00E947032009741F122
:105A70000E941032BC01C7014A2D0E940539A09036
:105A80001A0EB0901B0E0E9410327C010E946432EC
:105A9000BC01C701F5010995C114D10489F0009733
:105AA00021F08130910561F404C0C80160E070E02C
:105AB00003C0C80164E070E041E050E0F6010995E0
:105AC000E0960FB6F894DEBF0FBECDBFCF91DF9149
:105AD0001F910F91FF90EF90DF90CF90BF90AF900C
